{
	"Wallet/NewWallet.sol": {
		"Wallet": {
			"abi": [
				{
					"inputs": [],
					"stateMutability": "nonpayable",
					"type": "constructor"
				},
				{
					"anonymous": false,
					"inputs": [
						{
							"indexed": true,
							"internalType": "address",
							"name": "previousOwner",
							"type": "address"
						},
						{
							"indexed": true,
							"internalType": "address",
							"name": "newOwner",
							"type": "address"
						}
					],
					"name": "OwnershipTransferred",
					"type": "event"
				},
				{
					"inputs": [
						{
							"internalType": "address",
							"name": "_who",
							"type": "address"
						},
						{
							"internalType": "uint256",
							"name": "_amount",
							"type": "uint256"
						}
					],
					"name": "addAllowance",
					"outputs": [],
					"stateMutability": "nonpayable",
					"type": "function"
				},
				{
					"inputs": [],
					"name": "isOwner",
					"outputs": [
						{
							"internalType": "bool",
							"name": "",
							"type": "bool"
						}
					],
					"stateMutability": "view",
					"type": "function"
				},
				{
					"inputs": [],
					"name": "owner",
					"outputs": [
						{
							"internalType": "address",
							"name": "",
							"type": "address"
						}
					],
					"stateMutability": "view",
					"type": "function"
				},
				{
					"inputs": [],
					"name": "receiveMoney",
					"outputs": [],
					"stateMutability": "payable",
					"type": "function"
				},
				{
					"inputs": [],
					"name": "renounceOwnership",
					"outputs": [],
					"stateMutability": "nonpayable",
					"type": "function"
				},
				{
					"inputs": [
						{
							"internalType": "address",
							"name": "newOwner",
							"type": "address"
						}
					],
					"name": "transferOwnership",
					"outputs": [],
					"stateMutability": "nonpayable",
					"type": "function"
				},
				{
					"inputs": [
						{
							"internalType": "address payable",
							"name": "_to",
							"type": "address"
						},
						{
							"internalType": "uint256",
							"name": "_amount",
							"type": "uint256"
						}
					],
					"name": "withdrawMoney",
					"outputs": [],
					"stateMutability": "nonpayable",
					"type": "function"
				}
			],
			"devdoc": {
				"kind": "dev",
				"methods": {
					"owner()": {
						"details": "Returns the address of the current owner."
					},
					"renounceOwnership()": {
						"details": "Leaves the contract without owner. It will not be possible to call `onlyOwner` functions anymore. Can only be called by the current owner. NOTE: Renouncing ownership will leave the contract without an owner, thereby removing any functionality that is only available to the owner."
					},
					"transferOwnership(address)": {
						"details": "Transfers ownership of the contract to a new account (`newOwner`). Can only be called by the current owner."
					}
				},
				"version": 1
			},
			"evm": {
				"assembly": "    /* \"Wallet/NewWallet.sol\":174:1136  contract Wallet is Ownable{\r... */\n  mstore(0x40, 0x80)\n    /* \"Wallet/NewWallet.sol\":274:326  constructor() {\r... */\n  callvalue\n  dup1\n  iszero\n  tag_1\n  jumpi\n  0x00\n  dup1\n  revert\ntag_1:\n  pop\n    /* \"https://github.com/OpenZeppelin/openzeppelin-contracts/blob/master/contracts/access/Ownable.sol\":936:968  _transferOwnership(_msgSender()) */\n  tag_5\n    /* \"https://github.com/OpenZeppelin/openzeppelin-contracts/blob/master/contracts/access/Ownable.sol\":955:967  _msgSender() */\n  tag_6\n    /* \"https://github.com/OpenZeppelin/openzeppelin-contracts/blob/master/contracts/access/Ownable.sol\":955:965  _msgSender */\n  shl(0x20, tag_7)\n    /* \"https://github.com/OpenZeppelin/openzeppelin-contracts/blob/master/contracts/access/Ownable.sol\":955:967  _msgSender() */\n  0x20\n  shr\n  jump\t// in\ntag_6:\n    /* \"https://github.com/OpenZeppelin/openzeppelin-contracts/blob/master/contracts/access/Ownable.sol\":936:954  _transferOwnership */\n  shl(0x20, tag_8)\n    /* \"https://github.com/OpenZeppelin/openzeppelin-contracts/blob/master/contracts/access/Ownable.sol\":936:968  _transferOwnership(_msgSender()) */\n  0x20\n  shr\n  jump\t// in\ntag_5:\n    /* \"Wallet/NewWallet.sol\":308:318  msg.sender */\n  caller\n    /* \"Wallet/NewWallet.sol\":299:305  _owner */\n  0x02\n  0x00\n    /* \"Wallet/NewWallet.sol\":299:318  _owner = msg.sender */\n  0x0100\n  exp\n  dup2\n  sload\n  dup2\n  0xffffffffffffffffffffffffffffffffffffffff\n  mul\n  not\n  and\n  swap1\n  dup4\n  0xffffffffffffffffffffffffffffffffffffffff\n  and\n  mul\n  or\n  swap1\n  sstore\n  pop\n    /* \"Wallet/NewWallet.sol\":174:1136  contract Wallet is Ownable{\r... */\n  jump(tag_10)\n    /* \"https://github.com/OpenZeppelin/openzeppelin-contracts/blob/master/contracts/utils/Context.sol\":640:736  function _msgSender() internal view virtual returns (address) {... */\ntag_7:\n    /* \"https://github.com/OpenZeppelin/openzeppelin-contracts/blob/master/contracts/utils/Context.sol\":693:700  address */\n  0x00\n    /* \"https://github.com/OpenZeppelin/openzeppelin-contracts/blob/master/contracts/utils/Context.sol\":719:729  msg.sender */\n  caller\n    /* \"https://github.com/OpenZeppelin/openzeppelin-contracts/blob/master/contracts/utils/Context.sol\":712:729  return msg.sender */\n  swap1\n  pop\n    /* \"https://github.com/OpenZeppelin/openzeppelin-contracts/blob/master/contracts/utils/Context.sol\":640:736  function _msgSender() internal view virtual returns (address) {... */\n  swap1\n  jump\t// out\n    /* \"https://github.com/OpenZeppelin/openzeppelin-contracts/blob/master/contracts/access/Ownable.sol\":2433:2620  function _transferOwnership(address newOwner) internal virtual {... */\ntag_8:\n    /* \"https://github.com/OpenZeppelin/openzeppelin-contracts/blob/master/contracts/access/Ownable.sol\":2506:2522  address oldOwner */\n  0x00\n    /* \"https://github.com/OpenZeppelin/openzeppelin-contracts/blob/master/contracts/access/Ownable.sol\":2525:2531  _owner */\n  dup1\n  0x00\n  swap1\n  sload\n  swap1\n  0x0100\n  exp\n  swap1\n  div\n  0xffffffffffffffffffffffffffffffffffffffff\n  and\n    /* \"https://github.com/OpenZeppelin/openzeppelin-contracts/blob/master/contracts/access/Ownable.sol\":2506:2531  address oldOwner = _owner */\n  swap1\n  pop\n    /* \"https://github.com/OpenZeppelin/openzeppelin-contracts/blob/master/contracts/access/Ownable.sol\":2550:2558  newOwner */\n  dup2\n    /* \"https://github.com/OpenZeppelin/openzeppelin-contracts/blob/master/contracts/access/Ownable.sol\":2541:2547  _owner */\n  0x00\n  dup1\n    /* \"https://github.com/OpenZeppelin/openzeppelin-contracts/blob/master/contracts/access/Ownable.sol\":2541:2558  _owner = newOwner */\n  0x0100\n  exp\n  dup2\n  sload\n  dup2\n  0xffffffffffffffffffffffffffffffffffffffff\n  mul\n  not\n  and\n  swap1\n  dup4\n  0xffffffffffffffffffffffffffffffffffffffff\n  and\n  mul\n  or\n  swap1\n  sstore\n  pop\n    /* \"https://github.com/OpenZeppelin/openzeppelin-contracts/blob/master/contracts/access/Ownable.sol\":2604:2612  newOwner */\n  dup2\n    /* \"https://github.com/OpenZeppelin/openzeppelin-contracts/blob/master/contracts/access/Ownable.sol\":2573:2613  OwnershipTransferred(oldOwner, newOwner) */\n  0xffffffffffffffffffffffffffffffffffffffff\n  and\n    /* \"https://github.com/OpenZeppelin/openzeppelin-contracts/blob/master/contracts/access/Ownable.sol\":2594:2602  oldOwner */\n  dup2\n    /* \"https://github.com/OpenZeppelin/openzeppelin-contracts/blob/master/contracts/access/Ownable.sol\":2573:2613  OwnershipTransferred(oldOwner, newOwner) */\n  0xffffffffffffffffffffffffffffffffffffffff\n  and\n  0x8be0079c531659141344cd1fd0a4f28419497f9722a3daafe3b4186f6b6457e0\n  mload(0x40)\n  mload(0x40)\n  dup1\n  swap2\n  sub\n  swap1\n  log3\n    /* \"https://github.com/OpenZeppelin/openzeppelin-contracts/blob/master/contracts/access/Ownable.sol\":2433:2620  function _transferOwnership(address newOwner) internal virtual {... */\n  pop\n  pop\n  jump\t// out\n    /* \"Wallet/NewWallet.sol\":174:1136  contract Wallet is Ownable{\r... */\ntag_10:\n  dataSize(sub_0)\n  dup1\n  dataOffset(sub_0)\n  0x00\n  codecopy\n  0x00\n  return\nstop\n\nsub_0: assembly {\n        /* \"Wallet/NewWallet.sol\":174:1136  contract Wallet is Ownable{\r... */\n      mstore(0x40, 0x80)\n      jumpi(tag_1, lt(calldatasize, 0x04))\n      shr(0xe0, calldataload(0x00))\n      dup1\n      0x8f32d59b\n      gt\n      tag_9\n      jumpi\n      dup1\n      0x8f32d59b\n      eq\n      tag_5\n      jumpi\n      dup1\n      0xf274c897\n      eq\n      tag_6\n      jumpi\n      dup1\n      0xf2fde38b\n      eq\n      tag_7\n      jumpi\n      dup1\n      0xf3c40c4b\n      eq\n      tag_8\n      jumpi\n      jump(tag_1)\n    tag_9:\n      dup1\n      0x6d26ec18\n      eq\n      tag_2\n      jumpi\n      dup1\n      0x715018a6\n      eq\n      tag_3\n      jumpi\n      dup1\n      0x8da5cb5b\n      eq\n      tag_4\n      jumpi\n    tag_1:\n      0x00\n      dup1\n      revert\n        /* \"Wallet/NewWallet.sol\":441:490  function receiveMoney() public payable {\r... */\n    tag_2:\n      tag_10\n      tag_11\n      jump\t// in\n    tag_10:\n      stop\n        /* \"https://github.com/OpenZeppelin/openzeppelin-contracts/blob/master/contracts/access/Ownable.sol\":1831:1932  function renounceOwnership() public virtual onlyOwner {... */\n    tag_3:\n      callvalue\n      dup1\n      iszero\n      tag_12\n      jumpi\n      0x00\n      dup1\n      revert\n    tag_12:\n      pop\n      tag_13\n      tag_14\n      jump\t// in\n    tag_13:\n      stop\n        /* \"https://github.com/OpenZeppelin/openzeppelin-contracts/blob/master/contracts/access/Ownable.sol\":1201:1286  function owner() public view virtual returns (address) {... */\n    tag_4:\n      callvalue\n      dup1\n      iszero\n      tag_15\n      jumpi\n      0x00\n      dup1\n      revert\n    tag_15:\n      pop\n      tag_16\n      tag_17\n      jump\t// in\n    tag_16:\n      mload(0x40)\n      tag_18\n      swap2\n      swap1\n      tag_19\n      jump\t// in\n    tag_18:\n      mload(0x40)\n      dup1\n      swap2\n      sub\n      swap1\n      return\n        /* \"Wallet/NewWallet.sol\":339:432  function isOwner() public view returns(bool) {\r... */\n    tag_5:\n      callvalue\n      dup1\n      iszero\n      tag_20\n      jumpi\n      0x00\n      dup1\n      revert\n    tag_20:\n      pop\n      tag_21\n      tag_22\n      jump\t// in\n    tag_21:\n      mload(0x40)\n      tag_23\n      swap2\n      swap1\n      tag_24\n      jump\t// in\n    tag_23:\n      mload(0x40)\n      dup1\n      swap2\n      sub\n      swap1\n      return\n        /* \"Wallet/NewWallet.sol\":907:1127  function withdrawMoney(address payable _to , uint _amount) public ownerOrAllowed(_amount){\r... */\n    tag_6:\n      callvalue\n      dup1\n      iszero\n      tag_25\n      jumpi\n      0x00\n      dup1\n      revert\n    tag_25:\n      pop\n      tag_26\n      0x04\n      dup1\n      calldatasize\n      sub\n      dup2\n      add\n      swap1\n      tag_27\n      swap2\n      swap1\n      tag_28\n      jump\t// in\n    tag_27:\n      tag_29\n      jump\t// in\n    tag_26:\n      stop\n        /* \"https://github.com/OpenZeppelin/openzeppelin-contracts/blob/master/contracts/access/Ownable.sol\":2081:2279  function transferOwnership(address newOwner) public virtual onlyOwner {... */\n    tag_7:\n      callvalue\n      dup1\n      iszero\n      tag_30\n      jumpi\n      0x00\n      dup1\n      revert\n    tag_30:\n      pop\n      tag_31\n      0x04\n      dup1\n      calldatasize\n      sub\n      dup2\n      add\n      swap1\n      tag_32\n      swap2\n      swap1\n      tag_33\n      jump\t// in\n    tag_32:\n      tag_34\n      jump\t// in\n    tag_31:\n      stop\n        /* \"Wallet/NewWallet.sol\":503:625  function addAllowance(address _who , uint _amount) external onlyOwner{\r... */\n    tag_8:\n      callvalue\n      dup1\n      iszero\n      tag_35\n      jumpi\n      0x00\n      dup1\n      revert\n    tag_35:\n      pop\n      tag_36\n      0x04\n      dup1\n      calldatasize\n      sub\n      dup2\n      add\n      swap1\n      tag_37\n      swap2\n      swap1\n      tag_38\n      jump\t// in\n    tag_37:\n      tag_39\n      jump\t// in\n    tag_36:\n      stop\n        /* \"Wallet/NewWallet.sol\":441:490  function receiveMoney() public payable {\r... */\n    tag_11:\n      jump\t// out\n        /* \"https://github.com/OpenZeppelin/openzeppelin-contracts/blob/master/contracts/access/Ownable.sol\":1831:1932  function renounceOwnership() public virtual onlyOwner {... */\n    tag_14:\n        /* \"https://github.com/OpenZeppelin/openzeppelin-contracts/blob/master/contracts/access/Ownable.sol\":1094:1107  _checkOwner() */\n      tag_42\n        /* \"https://github.com/OpenZeppelin/openzeppelin-contracts/blob/master/contracts/access/Ownable.sol\":1094:1105  _checkOwner */\n      tag_43\n        /* \"https://github.com/OpenZeppelin/openzeppelin-contracts/blob/master/contracts/access/Ownable.sol\":1094:1107  _checkOwner() */\n      jump\t// in\n    tag_42:\n        /* \"https://github.com/OpenZeppelin/openzeppelin-contracts/blob/master/contracts/access/Ownable.sol\":1895:1925  _transferOwnership(address(0)) */\n      tag_45\n        /* \"https://github.com/OpenZeppelin/openzeppelin-contracts/blob/master/contracts/access/Ownable.sol\":1922:1923  0 */\n      0x00\n        /* \"https://github.com/OpenZeppelin/openzeppelin-contracts/blob/master/contracts/access/Ownable.sol\":1895:1913  _transferOwnership */\n      tag_46\n        /* \"https://github.com/OpenZeppelin/openzeppelin-contracts/blob/master/contracts/access/Ownable.sol\":1895:1925  _transferOwnership(address(0)) */\n      jump\t// in\n    tag_45:\n        /* \"https://github.com/OpenZeppelin/openzeppelin-contracts/blob/master/contracts/access/Ownable.sol\":1831:1932  function renounceOwnership() public virtual onlyOwner {... */\n      jump\t// out\n        /* \"https://github.com/OpenZeppelin/openzeppelin-contracts/blob/master/contracts/access/Ownable.sol\":1201:1286  function owner() public view virtual returns (address) {... */\n    tag_17:\n        /* \"https://github.com/OpenZeppelin/openzeppelin-contracts/blob/master/contracts/access/Ownable.sol\":1247:1254  address */\n      0x00\n        /* \"https://github.com/OpenZeppelin/openzeppelin-contracts/blob/master/contracts/access/Ownable.sol\":1273:1279  _owner */\n      dup1\n      0x00\n      swap1\n      sload\n      swap1\n      0x0100\n      exp\n      swap1\n      div\n      0xffffffffffffffffffffffffffffffffffffffff\n      and\n        /* \"https://github.com/OpenZeppelin/openzeppelin-contracts/blob/master/contracts/access/Ownable.sol\":1266:1279  return _owner */\n      swap1\n      pop\n        /* \"https://github.com/OpenZeppelin/openzeppelin-contracts/blob/master/contracts/access/Ownable.sol\":1201:1286  function owner() public view virtual returns (address) {... */\n      swap1\n      jump\t// out\n        /* \"Wallet/NewWallet.sol\":339:432  function isOwner() public view returns(bool) {\r... */\n    tag_22:\n        /* \"Wallet/NewWallet.sol\":378:382  bool */\n      0x00\n        /* \"Wallet/NewWallet.sol\":413:423  msg.sender */\n      caller\n        /* \"Wallet/NewWallet.sol\":403:423  _owner == msg.sender */\n      0xffffffffffffffffffffffffffffffffffffffff\n      and\n        /* \"Wallet/NewWallet.sol\":403:409  _owner */\n      0x02\n      0x00\n      swap1\n      sload\n      swap1\n      0x0100\n      exp\n      swap1\n      div\n      0xffffffffffffffffffffffffffffffffffffffff\n      and\n        /* \"Wallet/NewWallet.sol\":403:423  _owner == msg.sender */\n      0xffffffffffffffffffffffffffffffffffffffff\n      and\n      eq\n        /* \"Wallet/NewWallet.sol\":396:423  return _owner == msg.sender */\n      swap1\n      pop\n        /* \"Wallet/NewWallet.sol\":339:432  function isOwner() public view returns(bool) {\r... */\n      swap1\n      jump\t// out\n        /* \"Wallet/NewWallet.sol\":907:1127  function withdrawMoney(address payable _to , uint _amount) public ownerOrAllowed(_amount){\r... */\n    tag_29:\n        /* \"Wallet/NewWallet.sol\":988:995  _amount */\n      dup1\n        /* \"Wallet/NewWallet.sol\":807:816  isOwner() */\n      tag_50\n        /* \"Wallet/NewWallet.sol\":807:814  isOwner */\n      tag_22\n        /* \"Wallet/NewWallet.sol\":807:816  isOwner() */\n      jump\t// in\n    tag_50:\n        /* \"Wallet/NewWallet.sol\":807:852  isOwner() || allowance[msg.sender] >= _amount */\n      dup1\n      tag_51\n      jumpi\n      pop\n        /* \"Wallet/NewWallet.sol\":845:852  _amount */\n      dup1\n        /* \"Wallet/NewWallet.sol\":820:829  allowance */\n      0x01\n        /* \"Wallet/NewWallet.sol\":820:841  allowance[msg.sender] */\n      0x00\n        /* \"Wallet/NewWallet.sol\":830:840  msg.sender */\n      caller\n        /* \"Wallet/NewWallet.sol\":820:841  allowance[msg.sender] */\n      0xffffffffffffffffffffffffffffffffffffffff\n      and\n      0xffffffffffffffffffffffffffffffffffffffff\n      and\n      dup2\n      mstore\n      0x20\n      add\n      swap1\n      dup2\n      mstore\n      0x20\n      add\n      0x00\n      keccak256\n      sload\n        /* \"Wallet/NewWallet.sol\":820:852  allowance[msg.sender] >= _amount */\n      lt\n      iszero\n        /* \"Wallet/NewWallet.sol\":807:852  isOwner() || allowance[msg.sender] >= _amount */\n    tag_51:\n        /* \"Wallet/NewWallet.sol\":799:877  require(isOwner() || allowance[msg.sender] >= _amount , \"You are not allowed\") */\n      tag_52\n      jumpi\n      mload(0x40)\n      0x08c379a000000000000000000000000000000000000000000000000000000000\n      dup2\n      mstore\n      0x04\n      add\n      tag_53\n      swap1\n      tag_54\n      jump\t// in\n    tag_53:\n      mload(0x40)\n      dup1\n      swap2\n      sub\n      swap1\n      revert\n    tag_52:\n        /* \"Wallet/NewWallet.sol\":1011:1020  isOwner() */\n      tag_56\n        /* \"Wallet/NewWallet.sol\":1011:1018  isOwner */\n      tag_22\n        /* \"Wallet/NewWallet.sol\":1011:1020  isOwner() */\n      jump\t// in\n    tag_56:\n        /* \"Wallet/NewWallet.sol\":1007:1084  if(!isOwner()){\r... */\n      tag_57\n      jumpi\n        /* \"Wallet/NewWallet.sol\":1036:1072  reduceAllowance(msg.sender, _amount) */\n      tag_58\n        /* \"Wallet/NewWallet.sol\":1052:1062  msg.sender */\n      caller\n        /* \"Wallet/NewWallet.sol\":1064:1071  _amount */\n      dup4\n        /* \"Wallet/NewWallet.sol\":1036:1051  reduceAllowance */\n      tag_59\n        /* \"Wallet/NewWallet.sol\":1036:1072  reduceAllowance(msg.sender, _amount) */\n      jump\t// in\n    tag_58:\n        /* \"Wallet/NewWallet.sol\":1007:1084  if(!isOwner()){\r... */\n    tag_57:\n        /* \"Wallet/NewWallet.sol\":1098:1101  _to */\n      dup3\n        /* \"Wallet/NewWallet.sol\":1098:1110  _to.transfer */\n      0xffffffffffffffffffffffffffffffffffffffff\n      and\n        /* \"Wallet/NewWallet.sol\":1098:1119  _to.transfer(_amount) */\n      0x08fc\n        /* \"Wallet/NewWallet.sol\":1111:1118  _amount */\n      dup4\n        /* \"Wallet/NewWallet.sol\":1098:1119  _to.transfer(_amount) */\n      swap1\n      dup2\n      iszero\n      mul\n      swap1\n      mload(0x40)\n      0x00\n      mload(0x40)\n      dup1\n      dup4\n      sub\n      dup2\n      dup6\n      dup9\n      dup9\n      call\n      swap4\n      pop\n      pop\n      pop\n      pop\n      iszero\n      dup1\n      iszero\n      tag_61\n      jumpi\n      returndatasize\n      0x00\n      dup1\n      returndatacopy\n      revert(0x00, returndatasize)\n    tag_61:\n      pop\n        /* \"Wallet/NewWallet.sol\":907:1127  function withdrawMoney(address payable _to , uint _amount) public ownerOrAllowed(_amount){\r... */\n      pop\n      pop\n      pop\n      jump\t// out\n        /* \"https://github.com/OpenZeppelin/openzeppelin-contracts/blob/master/contracts/access/Ownable.sol\":2081:2279  function transferOwnership(address newOwner) public virtual onlyOwner {... */\n    tag_34:\n        /* \"https://github.com/OpenZeppelin/openzeppelin-contracts/blob/master/contracts/access/Ownable.sol\":1094:1107  _checkOwner() */\n      tag_63\n        /* \"https://github.com/OpenZeppelin/openzeppelin-contracts/blob/master/contracts/access/Ownable.sol\":1094:1105  _checkOwner */\n      tag_43\n        /* \"https://github.com/OpenZeppelin/openzeppelin-contracts/blob/master/contracts/access/Ownable.sol\":1094:1107  _checkOwner() */\n      jump\t// in\n    tag_63:\n        /* \"https://github.com/OpenZeppelin/openzeppelin-contracts/blob/master/contracts/access/Ownable.sol\":2189:2190  0 */\n      0x00\n        /* \"https://github.com/OpenZeppelin/openzeppelin-contracts/blob/master/contracts/access/Ownable.sol\":2169:2191  newOwner != address(0) */\n      0xffffffffffffffffffffffffffffffffffffffff\n      and\n        /* \"https://github.com/OpenZeppelin/openzeppelin-contracts/blob/master/contracts/access/Ownable.sol\":2169:2177  newOwner */\n      dup2\n        /* \"https://github.com/OpenZeppelin/openzeppelin-contracts/blob/master/contracts/access/Ownable.sol\":2169:2191  newOwner != address(0) */\n      0xffffffffffffffffffffffffffffffffffffffff\n      and\n      eq\n      iszero\n        /* \"https://github.com/OpenZeppelin/openzeppelin-contracts/blob/master/contracts/access/Ownable.sol\":2161:2234  require(newOwner != address(0), \"Ownable: new owner is the zero address\") */\n      tag_65\n      jumpi\n      mload(0x40)\n      0x08c379a000000000000000000000000000000000000000000000000000000000\n      dup2\n      mstore\n      0x04\n      add\n      tag_66\n      swap1\n      tag_67\n      jump\t// in\n    tag_66:\n      mload(0x40)\n      dup1\n      swap2\n      sub\n      swap1\n      revert\n    tag_65:\n        /* \"https://github.com/OpenZeppelin/openzeppelin-contracts/blob/master/contracts/access/Ownable.sol\":2244:2272  _transferOwnership(newOwner) */\n      tag_68\n        /* \"https://github.com/OpenZeppelin/openzeppelin-contracts/blob/master/contracts/access/Ownable.sol\":2263:2271  newOwner */\n      dup2\n        /* \"https://github.com/OpenZeppelin/openzeppelin-contracts/blob/master/contracts/access/Ownable.sol\":2244:2262  _transferOwnership */\n      tag_46\n        /* \"https://github.com/OpenZeppelin/openzeppelin-contracts/blob/master/contracts/access/Ownable.sol\":2244:2272  _transferOwnership(newOwner) */\n      jump\t// in\n    tag_68:\n        /* \"https://github.com/OpenZeppelin/openzeppelin-contracts/blob/master/contracts/access/Ownable.sol\":2081:2279  function transferOwnership(address newOwner) public virtual onlyOwner {... */\n      pop\n      jump\t// out\n        /* \"Wallet/NewWallet.sol\":503:625  function addAllowance(address _who , uint _amount) external onlyOwner{\r... */\n    tag_39:\n        /* \"https://github.com/OpenZeppelin/openzeppelin-contracts/blob/master/contracts/access/Ownable.sol\":1094:1107  _checkOwner() */\n      tag_70\n        /* \"https://github.com/OpenZeppelin/openzeppelin-contracts/blob/master/contracts/access/Ownable.sol\":1094:1105  _checkOwner */\n      tag_43\n        /* \"https://github.com/OpenZeppelin/openzeppelin-contracts/blob/master/contracts/access/Ownable.sol\":1094:1107  _checkOwner() */\n      jump\t// in\n    tag_70:\n        /* \"Wallet/NewWallet.sol\":608:615  _amount */\n      dup1\n        /* \"Wallet/NewWallet.sol\":590:599  allowance */\n      0x01\n        /* \"Wallet/NewWallet.sol\":590:605  allowance[_who] */\n      0x00\n        /* \"Wallet/NewWallet.sol\":600:604  _who */\n      dup5\n        /* \"Wallet/NewWallet.sol\":590:605  allowance[_who] */\n      0xffffffffffffffffffffffffffffffffffffffff\n      and\n      0xffffffffffffffffffffffffffffffffffffffff\n      and\n      dup2\n      mstore\n      0x20\n      add\n      swap1\n      dup2\n      mstore\n      0x20\n      add\n      0x00\n      keccak256\n        /* \"Wallet/NewWallet.sol\":590:615  allowance[_who] = _amount */\n      dup2\n      swap1\n      sstore\n      pop\n        /* \"Wallet/NewWallet.sol\":503:625  function addAllowance(address _who , uint _amount) external onlyOwner{\r... */\n      pop\n      pop\n      jump\t// out\n        /* \"https://github.com/OpenZeppelin/openzeppelin-contracts/blob/master/contracts/access/Ownable.sol\":1359:1489  function _checkOwner() internal view virtual {... */\n    tag_43:\n        /* \"https://github.com/OpenZeppelin/openzeppelin-contracts/blob/master/contracts/access/Ownable.sol\":1433:1445  _msgSender() */\n      tag_73\n        /* \"https://github.com/OpenZeppelin/openzeppelin-contracts/blob/master/contracts/access/Ownable.sol\":1433:1443  _msgSender */\n      tag_74\n        /* \"https://github.com/OpenZeppelin/openzeppelin-contracts/blob/master/contracts/access/Ownable.sol\":1433:1445  _msgSender() */\n      jump\t// in\n    tag_73:\n        /* \"https://github.com/OpenZeppelin/openzeppelin-contracts/blob/master/contracts/access/Ownable.sol\":1422:1445  owner() == _msgSender() */\n      0xffffffffffffffffffffffffffffffffffffffff\n      and\n        /* \"https://github.com/OpenZeppelin/openzeppelin-contracts/blob/master/contracts/access/Ownable.sol\":1422:1429  owner() */\n      tag_75\n        /* \"https://github.com/OpenZeppelin/openzeppelin-contracts/blob/master/contracts/access/Ownable.sol\":1422:1427  owner */\n      tag_17\n        /* \"https://github.com/OpenZeppelin/openzeppelin-contracts/blob/master/contracts/access/Ownable.sol\":1422:1429  owner() */\n      jump\t// in\n    tag_75:\n        /* \"https://github.com/OpenZeppelin/openzeppelin-contracts/blob/master/contracts/access/Ownable.sol\":1422:1445  owner() == _msgSender() */\n      0xffffffffffffffffffffffffffffffffffffffff\n      and\n      eq\n        /* \"https://github.com/OpenZeppelin/openzeppelin-contracts/blob/master/contracts/access/Ownable.sol\":1414:1482  require(owner() == _msgSender(), \"Ownable: caller is not the owner\") */\n      tag_76\n      jumpi\n      mload(0x40)\n      0x08c379a000000000000000000000000000000000000000000000000000000000\n      dup2\n      mstore\n      0x04\n      add\n      tag_77\n      swap1\n      tag_78\n      jump\t// in\n    tag_77:\n      mload(0x40)\n      dup1\n      swap2\n      sub\n      swap1\n      revert\n    tag_76:\n        /* \"https://github.com/OpenZeppelin/openzeppelin-contracts/blob/master/contracts/access/Ownable.sol\":1359:1489  function _checkOwner() internal view virtual {... */\n      jump\t// out\n        /* \"https://github.com/OpenZeppelin/openzeppelin-contracts/blob/master/contracts/access/Ownable.sol\":2433:2620  function _transferOwnership(address newOwner) internal virtual {... */\n    tag_46:\n        /* \"https://github.com/OpenZeppelin/openzeppelin-contracts/blob/master/contracts/access/Ownable.sol\":2506:2522  address oldOwner */\n      0x00\n        /* \"https://github.com/OpenZeppelin/openzeppelin-contracts/blob/master/contracts/access/Ownable.sol\":2525:2531  _owner */\n      dup1\n      0x00\n      swap1\n      sload\n      swap1\n      0x0100\n      exp\n      swap1\n      div\n      0xffffffffffffffffffffffffffffffffffffffff\n      and\n        /* \"https://github.com/OpenZeppelin/openzeppelin-contracts/blob/master/contracts/access/Ownable.sol\":2506:2531  address oldOwner = _owner */\n      swap1\n      pop\n        /* \"https://github.com/OpenZeppelin/openzeppelin-contracts/blob/master/contracts/access/Ownable.sol\":2550:2558  newOwner */\n      dup2\n        /* \"https://github.com/OpenZeppelin/openzeppelin-contracts/blob/master/contracts/access/Ownable.sol\":2541:2547  _owner */\n      0x00\n      dup1\n        /* \"https://github.com/OpenZeppelin/openzeppelin-contracts/blob/master/contracts/access/Ownable.sol\":2541:2558  _owner = newOwner */\n      0x0100\n      exp\n      dup2\n      sload\n      dup2\n      0xffffffffffffffffffffffffffffffffffffffff\n      mul\n      not\n      and\n      swap1\n      dup4\n      0xffffffffffffffffffffffffffffffffffffffff\n      and\n      mul\n      or\n      swap1\n      sstore\n      pop\n        /* \"https://github.com/OpenZeppelin/openzeppelin-contracts/blob/master/contracts/access/Ownable.sol\":2604:2612  newOwner */\n      dup2\n        /* \"https://github.com/OpenZeppelin/openzeppelin-contracts/blob/master/contracts/access/Ownable.sol\":2573:2613  OwnershipTransferred(oldOwner, newOwner) */\n      0xffffffffffffffffffffffffffffffffffffffff\n      and\n        /* \"https://github.com/OpenZeppelin/openzeppelin-contracts/blob/master/contracts/access/Ownable.sol\":2594:2602  oldOwner */\n      dup2\n        /* \"https://github.com/OpenZeppelin/openzeppelin-contracts/blob/master/contracts/access/Ownable.sol\":2573:2613  OwnershipTransferred(oldOwner, newOwner) */\n      0xffffffffffffffffffffffffffffffffffffffff\n      and\n      0x8be0079c531659141344cd1fd0a4f28419497f9722a3daafe3b4186f6b6457e0\n      mload(0x40)\n      mload(0x40)\n      dup1\n      swap2\n      sub\n      swap1\n      log3\n        /* \"https://github.com/OpenZeppelin/openzeppelin-contracts/blob/master/contracts/access/Ownable.sol\":2433:2620  function _transferOwnership(address newOwner) internal virtual {... */\n      pop\n      pop\n      jump\t// out\n        /* \"Wallet/NewWallet.sol\":633:741  function reduceAllowance(address _who , uint _amount) internal {\r... */\n    tag_59:\n        /* \"Wallet/NewWallet.sol\":726:733  _amount */\n      dup1\n        /* \"Wallet/NewWallet.sol\":707:716  allowance */\n      0x01\n        /* \"Wallet/NewWallet.sol\":707:722  allowance[_who] */\n      0x00\n        /* \"Wallet/NewWallet.sol\":717:721  _who */\n      dup5\n        /* \"Wallet/NewWallet.sol\":707:722  allowance[_who] */\n      0xffffffffffffffffffffffffffffffffffffffff\n      and\n      0xffffffffffffffffffffffffffffffffffffffff\n      and\n      dup2\n      mstore\n      0x20\n      add\n      swap1\n      dup2\n      mstore\n      0x20\n      add\n      0x00\n      keccak256\n      0x00\n        /* \"Wallet/NewWallet.sol\":707:733  allowance[_who] -= _amount */\n      dup3\n      dup3\n      sload\n      tag_81\n      swap2\n      swap1\n      tag_82\n      jump\t// in\n    tag_81:\n      swap3\n      pop\n      pop\n      dup2\n      swap1\n      sstore\n      pop\n        /* \"Wallet/NewWallet.sol\":633:741  function reduceAllowance(address _who , uint _amount) internal {\r... */\n      pop\n      pop\n      jump\t// out\n        /* \"https://github.com/OpenZeppelin/openzeppelin-contracts/blob/master/contracts/utils/Context.sol\":640:736  function _msgSender() internal view virtual returns (address) {... */\n    tag_74:\n        /* \"https://github.com/OpenZeppelin/openzeppelin-contracts/blob/master/contracts/utils/Context.sol\":693:700  address */\n      0x00\n        /* \"https://github.com/OpenZeppelin/openzeppelin-contracts/blob/master/contracts/utils/Context.sol\":719:729  msg.sender */\n      caller\n        /* \"https://github.com/OpenZeppelin/openzeppelin-contracts/blob/master/contracts/utils/Context.sol\":712:729  return msg.sender */\n      swap1\n      pop\n        /* \"https://github.com/OpenZeppelin/openzeppelin-contracts/blob/master/contracts/utils/Context.sol\":640:736  function _msgSender() internal view virtual returns (address) {... */\n      swap1\n      jump\t// out\n        /* \"#utility.yul\":7:146   */\n    tag_85:\n      0x00\n        /* \"#utility.yul\":91:97   */\n      dup2\n        /* \"#utility.yul\":78:98   */\n      calldataload\n        /* \"#utility.yul\":69:98   */\n      swap1\n      pop\n        /* \"#utility.yul\":107:140   */\n      tag_87\n        /* \"#utility.yul\":134:139   */\n      dup2\n        /* \"#utility.yul\":107:140   */\n      tag_88\n      jump\t// in\n    tag_87:\n        /* \"#utility.yul\":59:146   */\n      swap3\n      swap2\n      pop\n      pop\n      jump\t// out\n        /* \"#utility.yul\":152:307   */\n    tag_89:\n      0x00\n        /* \"#utility.yul\":244:250   */\n      dup2\n        /* \"#utility.yul\":231:251   */\n      calldataload\n        /* \"#utility.yul\":222:251   */\n      swap1\n      pop\n        /* \"#utility.yul\":260:301   */\n      tag_91\n        /* \"#utility.yul\":295:300   */\n      dup2\n        /* \"#utility.yul\":260:301   */\n      tag_92\n      jump\t// in\n    tag_91:\n        /* \"#utility.yul\":212:307   */\n      swap3\n      swap2\n      pop\n      pop\n      jump\t// out\n        /* \"#utility.yul\":313:452   */\n    tag_93:\n      0x00\n        /* \"#utility.yul\":397:403   */\n      dup2\n        /* \"#utility.yul\":384:404   */\n      calldataload\n        /* \"#utility.yul\":375:404   */\n      swap1\n      pop\n        /* \"#utility.yul\":413:446   */\n      tag_95\n        /* \"#utility.yul\":440:445   */\n      dup2\n        /* \"#utility.yul\":413:446   */\n      tag_96\n      jump\t// in\n    tag_95:\n        /* \"#utility.yul\":365:452   */\n      swap3\n      swap2\n      pop\n      pop\n      jump\t// out\n        /* \"#utility.yul\":458:720   */\n    tag_33:\n      0x00\n        /* \"#utility.yul\":566:568   */\n      0x20\n        /* \"#utility.yul\":554:563   */\n      dup3\n        /* \"#utility.yul\":545:552   */\n      dup5\n        /* \"#utility.yul\":541:564   */\n      sub\n        /* \"#utility.yul\":537:569   */\n      slt\n        /* \"#utility.yul\":534:536   */\n      iszero\n      tag_98\n      jumpi\n        /* \"#utility.yul\":582:583   */\n      0x00\n        /* \"#utility.yul\":579:580   */\n      dup1\n        /* \"#utility.yul\":572:584   */\n      revert\n        /* \"#utility.yul\":534:536   */\n    tag_98:\n        /* \"#utility.yul\":625:626   */\n      0x00\n        /* \"#utility.yul\":650:703   */\n      tag_99\n        /* \"#utility.yul\":695:702   */\n      dup5\n        /* \"#utility.yul\":686:692   */\n      dup3\n        /* \"#utility.yul\":675:684   */\n      dup6\n        /* \"#utility.yul\":671:693   */\n      add\n        /* \"#utility.yul\":650:703   */\n      tag_85\n      jump\t// in\n    tag_99:\n        /* \"#utility.yul\":640:703   */\n      swap2\n      pop\n        /* \"#utility.yul\":596:713   */\n      pop\n        /* \"#utility.yul\":524:720   */\n      swap3\n      swap2\n      pop\n      pop\n      jump\t// out\n        /* \"#utility.yul\":726:1149   */\n    tag_28:\n      0x00\n      dup1\n        /* \"#utility.yul\":859:861   */\n      0x40\n        /* \"#utility.yul\":847:856   */\n      dup4\n        /* \"#utility.yul\":838:845   */\n      dup6\n        /* \"#utility.yul\":834:857   */\n      sub\n        /* \"#utility.yul\":830:862   */\n      slt\n        /* \"#utility.yul\":827:829   */\n      iszero\n      tag_101\n      jumpi\n        /* \"#utility.yul\":875:876   */\n      0x00\n        /* \"#utility.yul\":872:873   */\n      dup1\n        /* \"#utility.yul\":865:877   */\n      revert\n        /* \"#utility.yul\":827:829   */\n    tag_101:\n        /* \"#utility.yul\":918:919   */\n      0x00\n        /* \"#utility.yul\":943:1004   */\n      tag_102\n        /* \"#utility.yul\":996:1003   */\n      dup6\n        /* \"#utility.yul\":987:993   */\n      dup3\n        /* \"#utility.yul\":976:985   */\n      dup7\n        /* \"#utility.yul\":972:994   */\n      add\n        /* \"#utility.yul\":943:1004   */\n      tag_89\n      jump\t// in\n    tag_102:\n        /* \"#utility.yul\":933:1004   */\n      swap3\n      pop\n        /* \"#utility.yul\":889:1014   */\n      pop\n        /* \"#utility.yul\":1053:1055   */\n      0x20\n        /* \"#utility.yul\":1079:1132   */\n      tag_103\n        /* \"#utility.yul\":1124:1131   */\n      dup6\n        /* \"#utility.yul\":1115:1121   */\n      dup3\n        /* \"#utility.yul\":1104:1113   */\n      dup7\n        /* \"#utility.yul\":1100:1122   */\n      add\n        /* \"#utility.yul\":1079:1132   */\n      tag_93\n      jump\t// in\n    tag_103:\n        /* \"#utility.yul\":1069:1132   */\n      swap2\n      pop\n        /* \"#utility.yul\":1024:1142   */\n      pop\n        /* \"#utility.yul\":817:1149   */\n      swap3\n      pop\n      swap3\n      swap1\n      pop\n      jump\t// out\n        /* \"#utility.yul\":1155:1562   */\n    tag_38:\n      0x00\n      dup1\n        /* \"#utility.yul\":1280:1282   */\n      0x40\n        /* \"#utility.yul\":1268:1277   */\n      dup4\n        /* \"#utility.yul\":1259:1266   */\n      dup6\n        /* \"#utility.yul\":1255:1278   */\n      sub\n        /* \"#utility.yul\":1251:1283   */\n      slt\n        /* \"#utility.yul\":1248:1250   */\n      iszero\n      tag_105\n      jumpi\n        /* \"#utility.yul\":1296:1297   */\n      0x00\n        /* \"#utility.yul\":1293:1294   */\n      dup1\n        /* \"#utility.yul\":1286:1298   */\n      revert\n        /* \"#utility.yul\":1248:1250   */\n    tag_105:\n        /* \"#utility.yul\":1339:1340   */\n      0x00\n        /* \"#utility.yul\":1364:1417   */\n      tag_106\n        /* \"#utility.yul\":1409:1416   */\n      dup6\n        /* \"#utility.yul\":1400:1406   */\n      dup3\n        /* \"#utility.yul\":1389:1398   */\n      dup7\n        /* \"#utility.yul\":1385:1407   */\n      add\n        /* \"#utility.yul\":1364:1417   */\n      tag_85\n      jump\t// in\n    tag_106:\n        /* \"#utility.yul\":1354:1417   */\n      swap3\n      pop\n        /* \"#utility.yul\":1310:1427   */\n      pop\n        /* \"#utility.yul\":1466:1468   */\n      0x20\n        /* \"#utility.yul\":1492:1545   */\n      tag_107\n        /* \"#utility.yul\":1537:1544   */\n      dup6\n        /* \"#utility.yul\":1528:1534   */\n      dup3\n        /* \"#utility.yul\":1517:1526   */\n      dup7\n        /* \"#utility.yul\":1513:1535   */\n      add\n        /* \"#utility.yul\":1492:1545   */\n      tag_93\n      jump\t// in\n    tag_107:\n        /* \"#utility.yul\":1482:1545   */\n      swap2\n      pop\n        /* \"#utility.yul\":1437:1555   */\n      pop\n        /* \"#utility.yul\":1238:1562   */\n      swap3\n      pop\n      swap3\n      swap1\n      pop\n      jump\t// out\n        /* \"#utility.yul\":1568:1686   */\n    tag_108:\n        /* \"#utility.yul\":1655:1679   */\n      tag_110\n        /* \"#utility.yul\":1673:1678   */\n      dup2\n        /* \"#utility.yul\":1655:1679   */\n      tag_111\n      jump\t// in\n    tag_110:\n        /* \"#utility.yul\":1650:1653   */\n      dup3\n        /* \"#utility.yul\":1643:1680   */\n      mstore\n        /* \"#utility.yul\":1633:1686   */\n      pop\n      pop\n      jump\t// out\n        /* \"#utility.yul\":1692:1801   */\n    tag_112:\n        /* \"#utility.yul\":1773:1794   */\n      tag_114\n        /* \"#utility.yul\":1788:1793   */\n      dup2\n        /* \"#utility.yul\":1773:1794   */\n      tag_115\n      jump\t// in\n    tag_114:\n        /* \"#utility.yul\":1768:1771   */\n      dup3\n        /* \"#utility.yul\":1761:1795   */\n      mstore\n        /* \"#utility.yul\":1751:1801   */\n      pop\n      pop\n      jump\t// out\n        /* \"#utility.yul\":1807:2177   */\n    tag_116:\n      0x00\n        /* \"#utility.yul\":1970:2037   */\n      tag_118\n        /* \"#utility.yul\":2034:2036   */\n      0x26\n        /* \"#utility.yul\":2029:2032   */\n      dup4\n        /* \"#utility.yul\":1970:2037   */\n      tag_119\n      jump\t// in\n    tag_118:\n        /* \"#utility.yul\":1963:2037   */\n      swap2\n      pop\n        /* \"#utility.yul\":2067:2101   */\n      0x4f776e61626c653a206e6577206f776e657220697320746865207a65726f2061\n        /* \"#utility.yul\":2063:2064   */\n      0x00\n        /* \"#utility.yul\":2058:2061   */\n      dup4\n        /* \"#utility.yul\":2054:2065   */\n      add\n        /* \"#utility.yul\":2047:2102   */\n      mstore\n        /* \"#utility.yul\":2133:2141   */\n      0x6464726573730000000000000000000000000000000000000000000000000000\n        /* \"#utility.yul\":2128:2130   */\n      0x20\n        /* \"#utility.yul\":2123:2126   */\n      dup4\n        /* \"#utility.yul\":2119:2131   */\n      add\n        /* \"#utility.yul\":2112:2142   */\n      mstore\n        /* \"#utility.yul\":2168:2170   */\n      0x40\n        /* \"#utility.yul\":2163:2166   */\n      dup3\n        /* \"#utility.yul\":2159:2171   */\n      add\n        /* \"#utility.yul\":2152:2171   */\n      swap1\n      pop\n        /* \"#utility.yul\":1953:2177   */\n      swap2\n      swap1\n      pop\n      jump\t// out\n        /* \"#utility.yul\":2183:2500   */\n    tag_120:\n      0x00\n        /* \"#utility.yul\":2346:2413   */\n      tag_122\n        /* \"#utility.yul\":2410:2412   */\n      0x13\n        /* \"#utility.yul\":2405:2408   */\n      dup4\n        /* \"#utility.yul\":2346:2413   */\n      tag_119\n      jump\t// in\n    tag_122:\n        /* \"#utility.yul\":2339:2413   */\n      swap2\n      pop\n        /* \"#utility.yul\":2443:2464   */\n      0x596f7520617265206e6f7420616c6c6f77656400000000000000000000000000\n        /* \"#utility.yul\":2439:2440   */\n      0x00\n        /* \"#utility.yul\":2434:2437   */\n      dup4\n        /* \"#utility.yul\":2430:2441   */\n      add\n        /* \"#utility.yul\":2423:2465   */\n      mstore\n        /* \"#utility.yul\":2491:2493   */\n      0x20\n        /* \"#utility.yul\":2486:2489   */\n      dup3\n        /* \"#utility.yul\":2482:2494   */\n      add\n        /* \"#utility.yul\":2475:2494   */\n      swap1\n      pop\n        /* \"#utility.yul\":2329:2500   */\n      swap2\n      swap1\n      pop\n      jump\t// out\n        /* \"#utility.yul\":2506:2836   */\n    tag_123:\n      0x00\n        /* \"#utility.yul\":2669:2736   */\n      tag_125\n        /* \"#utility.yul\":2733:2735   */\n      0x20\n        /* \"#utility.yul\":2728:2731   */\n      dup4\n        /* \"#utility.yul\":2669:2736   */\n      tag_119\n      jump\t// in\n    tag_125:\n        /* \"#utility.yul\":2662:2736   */\n      swap2\n      pop\n        /* \"#utility.yul\":2766:2800   */\n      0x4f776e61626c653a2063616c6c6572206973206e6f7420746865206f776e6572\n        /* \"#utility.yul\":2762:2763   */\n      0x00\n        /* \"#utility.yul\":2757:2760   */\n      dup4\n        /* \"#utility.yul\":2753:2764   */\n      add\n        /* \"#utility.yul\":2746:2801   */\n      mstore\n        /* \"#utility.yul\":2827:2829   */\n      0x20\n        /* \"#utility.yul\":2822:2825   */\n      dup3\n        /* \"#utility.yul\":2818:2830   */\n      add\n        /* \"#utility.yul\":2811:2830   */\n      swap1\n      pop\n        /* \"#utility.yul\":2652:2836   */\n      swap2\n      swap1\n      pop\n      jump\t// out\n        /* \"#utility.yul\":2842:3064   */\n    tag_19:\n      0x00\n        /* \"#utility.yul\":2973:2975   */\n      0x20\n        /* \"#utility.yul\":2962:2971   */\n      dup3\n        /* \"#utility.yul\":2958:2976   */\n      add\n        /* \"#utility.yul\":2950:2976   */\n      swap1\n      pop\n        /* \"#utility.yul\":2986:3057   */\n      tag_127\n        /* \"#utility.yul\":3054:3055   */\n      0x00\n        /* \"#utility.yul\":3043:3052   */\n      dup4\n        /* \"#utility.yul\":3039:3056   */\n      add\n        /* \"#utility.yul\":3030:3036   */\n      dup5\n        /* \"#utility.yul\":2986:3057   */\n      tag_108\n      jump\t// in\n    tag_127:\n        /* \"#utility.yul\":2940:3064   */\n      swap3\n      swap2\n      pop\n      pop\n      jump\t// out\n        /* \"#utility.yul\":3070:3280   */\n    tag_24:\n      0x00\n        /* \"#utility.yul\":3195:3197   */\n      0x20\n        /* \"#utility.yul\":3184:3193   */\n      dup3\n        /* \"#utility.yul\":3180:3198   */\n      add\n        /* \"#utility.yul\":3172:3198   */\n      swap1\n      pop\n        /* \"#utility.yul\":3208:3273   */\n      tag_129\n        /* \"#utility.yul\":3270:3271   */\n      0x00\n        /* \"#utility.yul\":3259:3268   */\n      dup4\n        /* \"#utility.yul\":3255:3272   */\n      add\n        /* \"#utility.yul\":3246:3252   */\n      dup5\n        /* \"#utility.yul\":3208:3273   */\n      tag_112\n      jump\t// in\n    tag_129:\n        /* \"#utility.yul\":3162:3280   */\n      swap3\n      swap2\n      pop\n      pop\n      jump\t// out\n        /* \"#utility.yul\":3286:3705   */\n    tag_67:\n      0x00\n        /* \"#utility.yul\":3490:3492   */\n      0x20\n        /* \"#utility.yul\":3479:3488   */\n      dup3\n        /* \"#utility.yul\":3475:3493   */\n      add\n        /* \"#utility.yul\":3467:3493   */\n      swap1\n      pop\n        /* \"#utility.yul\":3539:3548   */\n      dup2\n        /* \"#utility.yul\":3533:3537   */\n      dup2\n        /* \"#utility.yul\":3529:3549   */\n      sub\n        /* \"#utility.yul\":3525:3526   */\n      0x00\n        /* \"#utility.yul\":3514:3523   */\n      dup4\n        /* \"#utility.yul\":3510:3527   */\n      add\n        /* \"#utility.yul\":3503:3550   */\n      mstore\n        /* \"#utility.yul\":3567:3698   */\n      tag_131\n        /* \"#utility.yul\":3693:3697   */\n      dup2\n        /* \"#utility.yul\":3567:3698   */\n      tag_116\n      jump\t// in\n    tag_131:\n        /* \"#utility.yul\":3559:3698   */\n      swap1\n      pop\n        /* \"#utility.yul\":3457:3705   */\n      swap2\n      swap1\n      pop\n      jump\t// out\n        /* \"#utility.yul\":3711:4130   */\n    tag_54:\n      0x00\n        /* \"#utility.yul\":3915:3917   */\n      0x20\n        /* \"#utility.yul\":3904:3913   */\n      dup3\n        /* \"#utility.yul\":3900:3918   */\n      add\n        /* \"#utility.yul\":3892:3918   */\n      swap1\n      pop\n        /* \"#utility.yul\":3964:3973   */\n      dup2\n        /* \"#utility.yul\":3958:3962   */\n      dup2\n        /* \"#utility.yul\":3954:3974   */\n      sub\n        /* \"#utility.yul\":3950:3951   */\n      0x00\n        /* \"#utility.yul\":3939:3948   */\n      dup4\n        /* \"#utility.yul\":3935:3952   */\n      add\n        /* \"#utility.yul\":3928:3975   */\n      mstore\n        /* \"#utility.yul\":3992:4123   */\n      tag_133\n        /* \"#utility.yul\":4118:4122   */\n      dup2\n        /* \"#utility.yul\":3992:4123   */\n      tag_120\n      jump\t// in\n    tag_133:\n        /* \"#utility.yul\":3984:4123   */\n      swap1\n      pop\n        /* \"#utility.yul\":3882:4130   */\n      swap2\n      swap1\n      pop\n      jump\t// out\n        /* \"#utility.yul\":4136:4555   */\n    tag_78:\n      0x00\n        /* \"#utility.yul\":4340:4342   */\n      0x20\n        /* \"#utility.yul\":4329:4338   */\n      dup3\n        /* \"#utility.yul\":4325:4343   */\n      add\n        /* \"#utility.yul\":4317:4343   */\n      swap1\n      pop\n        /* \"#utility.yul\":4389:4398   */\n      dup2\n        /* \"#utility.yul\":4383:4387   */\n      dup2\n        /* \"#utility.yul\":4379:4399   */\n      sub\n        /* \"#utility.yul\":4375:4376   */\n      0x00\n        /* \"#utility.yul\":4364:4373   */\n      dup4\n        /* \"#utility.yul\":4360:4377   */\n      add\n        /* \"#utility.yul\":4353:4400   */\n      mstore\n        /* \"#utility.yul\":4417:4548   */\n      tag_135\n        /* \"#utility.yul\":4543:4547   */\n      dup2\n        /* \"#utility.yul\":4417:4548   */\n      tag_123\n      jump\t// in\n    tag_135:\n        /* \"#utility.yul\":4409:4548   */\n      swap1\n      pop\n        /* \"#utility.yul\":4307:4555   */\n      swap2\n      swap1\n      pop\n      jump\t// out\n        /* \"#utility.yul\":4561:4730   */\n    tag_119:\n      0x00\n        /* \"#utility.yul\":4679:4685   */\n      dup3\n        /* \"#utility.yul\":4674:4677   */\n      dup3\n        /* \"#utility.yul\":4667:4686   */\n      mstore\n        /* \"#utility.yul\":4719:4723   */\n      0x20\n        /* \"#utility.yul\":4714:4717   */\n      dup3\n        /* \"#utility.yul\":4710:4724   */\n      add\n        /* \"#utility.yul\":4695:4724   */\n      swap1\n      pop\n        /* \"#utility.yul\":4657:4730   */\n      swap3\n      swap2\n      pop\n      pop\n      jump\t// out\n        /* \"#utility.yul\":4736:4927   */\n    tag_82:\n      0x00\n        /* \"#utility.yul\":4796:4816   */\n      tag_138\n        /* \"#utility.yul\":4814:4815   */\n      dup3\n        /* \"#utility.yul\":4796:4816   */\n      tag_139\n      jump\t// in\n    tag_138:\n        /* \"#utility.yul\":4791:4816   */\n      swap2\n      pop\n        /* \"#utility.yul\":4830:4850   */\n      tag_140\n        /* \"#utility.yul\":4848:4849   */\n      dup4\n        /* \"#utility.yul\":4830:4850   */\n      tag_139\n      jump\t// in\n    tag_140:\n        /* \"#utility.yul\":4825:4850   */\n      swap3\n      pop\n        /* \"#utility.yul\":4869:4870   */\n      dup3\n        /* \"#utility.yul\":4866:4867   */\n      dup3\n        /* \"#utility.yul\":4863:4871   */\n      lt\n        /* \"#utility.yul\":4860:4862   */\n      iszero\n      tag_141\n      jumpi\n        /* \"#utility.yul\":4874:4892   */\n      tag_142\n      tag_143\n      jump\t// in\n    tag_142:\n        /* \"#utility.yul\":4860:4862   */\n    tag_141:\n        /* \"#utility.yul\":4919:4920   */\n      dup3\n        /* \"#utility.yul\":4916:4917   */\n      dup3\n        /* \"#utility.yul\":4912:4921   */\n      sub\n        /* \"#utility.yul\":4904:4921   */\n      swap1\n      pop\n        /* \"#utility.yul\":4781:4927   */\n      swap3\n      swap2\n      pop\n      pop\n      jump\t// out\n        /* \"#utility.yul\":4933:5029   */\n    tag_111:\n      0x00\n        /* \"#utility.yul\":4999:5023   */\n      tag_145\n        /* \"#utility.yul\":5017:5022   */\n      dup3\n        /* \"#utility.yul\":4999:5023   */\n      tag_146\n      jump\t// in\n    tag_145:\n        /* \"#utility.yul\":4988:5023   */\n      swap1\n      pop\n        /* \"#utility.yul\":4978:5029   */\n      swap2\n      swap1\n      pop\n      jump\t// out\n        /* \"#utility.yul\":5035:5139   */\n    tag_147:\n      0x00\n        /* \"#utility.yul\":5109:5133   */\n      tag_149\n        /* \"#utility.yul\":5127:5132   */\n      dup3\n        /* \"#utility.yul\":5109:5133   */\n      tag_146\n      jump\t// in\n    tag_149:\n        /* \"#utility.yul\":5098:5133   */\n      swap1\n      pop\n        /* \"#utility.yul\":5088:5139   */\n      swap2\n      swap1\n      pop\n      jump\t// out\n        /* \"#utility.yul\":5145:5235   */\n    tag_115:\n      0x00\n        /* \"#utility.yul\":5222:5227   */\n      dup2\n        /* \"#utility.yul\":5215:5228   */\n      iszero\n        /* \"#utility.yul\":5208:5229   */\n      iszero\n        /* \"#utility.yul\":5197:5229   */\n      swap1\n      pop\n        /* \"#utility.yul\":5187:5235   */\n      swap2\n      swap1\n      pop\n      jump\t// out\n        /* \"#utility.yul\":5241:5367   */\n    tag_146:\n      0x00\n        /* \"#utility.yul\":5318:5360   */\n      0xffffffffffffffffffffffffffffffffffffffff\n        /* \"#utility.yul\":5311:5316   */\n      dup3\n        /* \"#utility.yul\":5307:5361   */\n      and\n        /* \"#utility.yul\":5296:5361   */\n      swap1\n      pop\n        /* \"#utility.yul\":5286:5367   */\n      swap2\n      swap1\n      pop\n      jump\t// out\n        /* \"#utility.yul\":5373:5450   */\n    tag_139:\n      0x00\n        /* \"#utility.yul\":5439:5444   */\n      dup2\n        /* \"#utility.yul\":5428:5444   */\n      swap1\n      pop\n        /* \"#utility.yul\":5418:5450   */\n      swap2\n      swap1\n      pop\n      jump\t// out\n        /* \"#utility.yul\":5456:5636   */\n    tag_143:\n        /* \"#utility.yul\":5504:5581   */\n      0x4e487b7100000000000000000000000000000000000000000000000000000000\n        /* \"#utility.yul\":5501:5502   */\n      0x00\n        /* \"#utility.yul\":5494:5582   */\n      mstore\n        /* \"#utility.yul\":5601:5605   */\n      0x11\n        /* \"#utility.yul\":5598:5599   */\n      0x04\n        /* \"#utility.yul\":5591:5606   */\n      mstore\n        /* \"#utility.yul\":5625:5629   */\n      0x24\n        /* \"#utility.yul\":5622:5623   */\n      0x00\n        /* \"#utility.yul\":5615:5630   */\n      revert\n        /* \"#utility.yul\":5642:5764   */\n    tag_88:\n        /* \"#utility.yul\":5715:5739   */\n      tag_155\n        /* \"#utility.yul\":5733:5738   */\n      dup2\n        /* \"#utility.yul\":5715:5739   */\n      tag_111\n      jump\t// in\n    tag_155:\n        /* \"#utility.yul\":5708:5713   */\n      dup2\n        /* \"#utility.yul\":5705:5740   */\n      eq\n        /* \"#utility.yul\":5695:5697   */\n      tag_156\n      jumpi\n        /* \"#utility.yul\":5754:5755   */\n      0x00\n        /* \"#utility.yul\":5751:5752   */\n      dup1\n        /* \"#utility.yul\":5744:5756   */\n      revert\n        /* \"#utility.yul\":5695:5697   */\n    tag_156:\n        /* \"#utility.yul\":5685:5764   */\n      pop\n      jump\t// out\n        /* \"#utility.yul\":5770:5908   */\n    tag_92:\n        /* \"#utility.yul\":5851:5883   */\n      tag_158\n        /* \"#utility.yul\":5877:5882   */\n      dup2\n        /* \"#utility.yul\":5851:5883   */\n      tag_147\n      jump\t// in\n    tag_158:\n        /* \"#utility.yul\":5844:5849   */\n      dup2\n        /* \"#utility.yul\":5841:5884   */\n      eq\n        /* \"#utility.yul\":5831:5833   */\n      tag_159\n      jumpi\n        /* \"#utility.yul\":5898:5899   */\n      0x00\n        /* \"#utility.yul\":5895:5896   */\n      dup1\n        /* \"#utility.yul\":5888:5900   */\n      revert\n        /* \"#utility.yul\":5831:5833   */\n    tag_159:\n        /* \"#utility.yul\":5821:5908   */\n      pop\n      jump\t// out\n        /* \"#utility.yul\":5914:6036   */\n    tag_96:\n        /* \"#utility.yul\":5987:6011   */\n      tag_161\n        /* \"#utility.yul\":6005:6010   */\n      dup2\n        /* \"#utility.yul\":5987:6011   */\n      tag_139\n      jump\t// in\n    tag_161:\n        /* \"#utility.yul\":5980:5985   */\n      dup2\n        /* \"#utility.yul\":5977:6012   */\n      eq\n        /* \"#utility.yul\":5967:5969   */\n      tag_162\n      jumpi\n        /* \"#utility.yul\":6026:6027   */\n      0x00\n        /* \"#utility.yul\":6023:6024   */\n      dup1\n        /* \"#utility.yul\":6016:6028   */\n      revert\n        /* \"#utility.yul\":5967:5969   */\n    tag_162:\n        /* \"#utility.yul\":5957:6036   */\n      pop\n      jump\t// out\n\n    auxdata: 0xa26469706673582212205ecc0dd5ecc0365e32db7781ea021f0a2de4829d318644e680ca288904516cd764736f6c63430008000033\n}\n",
				"bytecode": {
					"linkReferences": {},
					"object": "608060405234801561001057600080fd5b5061002d61002261007360201b60201c565b61007b60201b60201c565b33600260006101000a81548173ffffffffffffffffffffffffffffffffffffffff021916908373ffffffffffffffffffffffffffffffffffffffff16021790555061013f565b600033905090565b60008060009054906101000a900473ffffffffffffffffffffffffffffffffffffffff169050816000806101000a81548173ffffffffffffffffffffffffffffffffffffffff021916908373ffffffffffffffffffffffffffffffffffffffff1602179055508173ffffffffffffffffffffffffffffffffffffffff168173ffffffffffffffffffffffffffffffffffffffff167f8be0079c531659141344cd1fd0a4f28419497f9722a3daafe3b4186f6b6457e060405160405180910390a35050565b61092e8061014e6000396000f3fe6080604052600436106100705760003560e01c80638f32d59b1161004e5780638f32d59b146100c1578063f274c897146100ec578063f2fde38b14610115578063f3c40c4b1461013e57610070565b80636d26ec1814610075578063715018a61461007f5780638da5cb5b14610096575b600080fd5b61007d610167565b005b34801561008b57600080fd5b50610094610169565b005b3480156100a257600080fd5b506100ab61017d565b6040516100b8919061074f565b60405180910390f35b3480156100cd57600080fd5b506100d66101a6565b6040516100e3919061076a565b60405180910390f35b3480156100f857600080fd5b50610113600480360381019061010e91906105d3565b6101fe565b005b34801561012157600080fd5b5061013c600480360381019061013791906105aa565b6102f3565b005b34801561014a57600080fd5b506101656004803603810190610160919061060f565b610377565b005b565b6101716103c7565b61017b6000610445565b565b60008060009054906101000a900473ffffffffffffffffffffffffffffffffffffffff16905090565b60003373ffffffffffffffffffffffffffffffffffffffff16600260009054906101000a900473ffffffffffffffffffffffffffffffffffffffff1673ffffffffffffffffffffffffffffffffffffffff1614905090565b806102076101a6565b80610251575080600160003373ffffffffffffffffffffffffffffffffffffffff1673ffffffffffffffffffffffffffffffffffffffff1681526020019081526020016000205410155b610290576040517f08c379a0000000000000000000000000000000000000000000000000000000008152600401610287906107a5565b60405180910390fd5b6102986101a6565b6102a7576102a63383610509565b5b8273ffffffffffffffffffffffffffffffffffffffff166108fc839081150290604051600060405180830381858888f193505050501580156102ed573d6000803e3d6000fd5b50505050565b6102fb6103c7565b600073ffffffffffffffffffffffffffffffffffffffff168173ffffffffffffffffffffffffffffffffffffffff16141561036b576040517f08c379a000000000000000000000000000000000000000000000000000000000815260040161036290610785565b60405180910390fd5b61037481610445565b50565b61037f6103c7565b80600160008473ffffffffffffffffffffffffffffffffffffffff1673ffffffffffffffffffffffffffffffffffffffff168152602001908152602001600020819055505050565b6103cf610563565b73ffffffffffffffffffffffffffffffffffffffff166103ed61017d565b73ffffffffffffffffffffffffffffffffffffffff1614610443576040517f08c379a000000000000000000000000000000000000000000000000000000000815260040161043a906107c5565b60405180910390fd5b565b60008060009054906101000a900473ffffffffffffffffffffffffffffffffffffffff169050816000806101000a81548173ffffffffffffffffffffffffffffffffffffffff021916908373ffffffffffffffffffffffffffffffffffffffff1602179055508173ffffffffffffffffffffffffffffffffffffffff168173ffffffffffffffffffffffffffffffffffffffff167f8be0079c531659141344cd1fd0a4f28419497f9722a3daafe3b4186f6b6457e060405160405180910390a35050565b80600160008473ffffffffffffffffffffffffffffffffffffffff1673ffffffffffffffffffffffffffffffffffffffff168152602001908152602001600020600082825461055891906107f6565b925050819055505050565b600033905090565b60008135905061057a816108b3565b92915050565b60008135905061058f816108ca565b92915050565b6000813590506105a4816108e1565b92915050565b6000602082840312156105bc57600080fd5b60006105ca8482850161056b565b91505092915050565b600080604083850312156105e657600080fd5b60006105f485828601610580565b925050602061060585828601610595565b9150509250929050565b6000806040838503121561062257600080fd5b60006106308582860161056b565b925050602061064185828601610595565b9150509250929050565b6106548161082a565b82525050565b6106638161084e565b82525050565b60006106766026836107e5565b91507f4f776e61626c653a206e6577206f776e657220697320746865207a65726f206160008301527f64647265737300000000000000000000000000000000000000000000000000006020830152604082019050919050565b60006106dc6013836107e5565b91507f596f7520617265206e6f7420616c6c6f776564000000000000000000000000006000830152602082019050919050565b600061071c6020836107e5565b91507f4f776e61626c653a2063616c6c6572206973206e6f7420746865206f776e65726000830152602082019050919050565b6000602082019050610764600083018461064b565b92915050565b600060208201905061077f600083018461065a565b92915050565b6000602082019050818103600083015261079e81610669565b9050919050565b600060208201905081810360008301526107be816106cf565b9050919050565b600060208201905081810360008301526107de8161070f565b9050919050565b600082825260208201905092915050565b60006108018261087a565b915061080c8361087a565b92508282101561081f5761081e610884565b5b828203905092915050565b60006108358261085a565b9050919050565b60006108478261085a565b9050919050565b60008115159050919050565b600073ffffffffffffffffffffffffffffffffffffffff82169050919050565b6000819050919050565b7f4e487b7100000000000000000000000000000000000000000000000000000000600052601160045260246000fd5b6108bc8161082a565b81146108c757600080fd5b50565b6108d38161083c565b81146108de57600080fd5b50565b6108ea8161087a565b81146108f557600080fd5b5056fea26469706673582212205ecc0dd5ecc0365e32db7781ea021f0a2de4829d318644e680ca288904516cd764736f6c63430008000033",
					"opcodes": "PUSH1 0x80 PUSH1 0x40 MSTORE CALLVALUE DUP1 ISZERO PUSH2 0x10 JUMPI PUSH1 0x0 DUP1 REVERT JUMPDEST POP PUSH2 0x2D PUSH2 0x22 PUSH2 0x73 PUSH1 0x20 SHL PUSH1 0x20 SHR JUMP JUMPDEST PUSH2 0x7B PUSH1 0x20 SHL PUSH1 0x20 SHR JUMP JUMPDEST CALLER PUSH1 0x2 PUSH1 0x0 PUSH2 0x100 EXP DUP2 SLOAD DUP2 PUSH20 0xFFFFFFFFFFFFFFFFFFFFFFFFFFFFFFFFFFFFFFFF MUL NOT AND SWAP1 DUP4 PUSH20 0xFFFFFFFFFFFFFFFFFFFFFFFFFFFFFFFFFFFFFFFF AND MUL OR SWAP1 SSTORE POP PUSH2 0x13F JUMP JUMPDEST PUSH1 0x0 CALLER SWAP1 POP SWAP1 JUMP JUMPDEST PUSH1 0x0 DUP1 PUSH1 0x0 SWAP1 SLOAD SWAP1 PUSH2 0x100 EXP SWAP1 DIV PUSH20 0xFFFFFFFFFFFFFFFFFFFFFFFFFFFFFFFFFFFFFFFF AND SWAP1 POP DUP2 PUSH1 0x0 DUP1 PUSH2 0x100 EXP DUP2 SLOAD DUP2 PUSH20 0xFFFFFFFFFFFFFFFFFFFFFFFFFFFFFFFFFFFFFFFF MUL NOT AND SWAP1 DUP4 PUSH20 0xFFFFFFFFFFFFFFFFFFFFFFFFFFFFFFFFFFFFFFFF AND MUL OR SWAP1 SSTORE POP DUP2 PUSH20 0xFFFFFFFFFFFFFFFFFFFFFFFFFFFFFFFFFFFFFFFF AND DUP2 PUSH20 0xFFFFFFFFFFFFFFFFFFFFFFFFFFFFFFFFFFFFFFFF AND PUSH32 0x8BE0079C531659141344CD1FD0A4F28419497F9722A3DAAFE3B4186F6B6457E0 PUSH1 0x40 MLOAD PUSH1 0x40 MLOAD DUP1 SWAP2 SUB SWAP1 LOG3 POP POP JUMP JUMPDEST PUSH2 0x92E DUP1 PUSH2 0x14E PUSH1 0x0 CODECOPY PUSH1 0x0 RETURN INVALID PUSH1 0x80 PUSH1 0x40 MSTORE PUSH1 0x4 CALLDATASIZE LT PUSH2 0x70 JUMPI PUSH1 0x0 CALLDATALOAD PUSH1 0xE0 SHR DUP1 PUSH4 0x8F32D59B GT PUSH2 0x4E JUMPI DUP1 PUSH4 0x8F32D59B EQ PUSH2 0xC1 JUMPI DUP1 PUSH4 0xF274C897 EQ PUSH2 0xEC JUMPI DUP1 PUSH4 0xF2FDE38B EQ PUSH2 0x115 JUMPI DUP1 PUSH4 0xF3C40C4B EQ PUSH2 0x13E JUMPI PUSH2 0x70 JUMP JUMPDEST DUP1 PUSH4 0x6D26EC18 EQ PUSH2 0x75 JUMPI DUP1 PUSH4 0x715018A6 EQ PUSH2 0x7F JUMPI DUP1 PUSH4 0x8DA5CB5B EQ PUSH2 0x96 JUMPI JUMPDEST PUSH1 0x0 DUP1 REVERT JUMPDEST PUSH2 0x7D PUSH2 0x167 JUMP JUMPDEST STOP JUMPDEST CALLVALUE DUP1 ISZERO PUSH2 0x8B JUMPI PUSH1 0x0 DUP1 REVERT JUMPDEST POP PUSH2 0x94 PUSH2 0x169 JUMP JUMPDEST STOP JUMPDEST CALLVALUE DUP1 ISZERO PUSH2 0xA2 JUMPI PUSH1 0x0 DUP1 REVERT JUMPDEST POP PUSH2 0xAB PUSH2 0x17D JUMP JUMPDEST PUSH1 0x40 MLOAD PUSH2 0xB8 SWAP2 SWAP1 PUSH2 0x74F JUMP JUMPDEST PUSH1 0x40 MLOAD DUP1 SWAP2 SUB SWAP1 RETURN JUMPDEST CALLVALUE DUP1 ISZERO PUSH2 0xCD JUMPI PUSH1 0x0 DUP1 REVERT JUMPDEST POP PUSH2 0xD6 PUSH2 0x1A6 JUMP JUMPDEST PUSH1 0x40 MLOAD PUSH2 0xE3 SWAP2 SWAP1 PUSH2 0x76A JUMP JUMPDEST PUSH1 0x40 MLOAD DUP1 SWAP2 SUB SWAP1 RETURN JUMPDEST CALLVALUE DUP1 ISZERO PUSH2 0xF8 JUMPI PUSH1 0x0 DUP1 REVERT JUMPDEST POP PUSH2 0x113 PUSH1 0x4 DUP1 CALLDATASIZE SUB DUP2 ADD SWAP1 PUSH2 0x10E SWAP2 SWAP1 PUSH2 0x5D3 JUMP JUMPDEST PUSH2 0x1FE JUMP JUMPDEST STOP JUMPDEST CALLVALUE DUP1 ISZERO PUSH2 0x121 JUMPI PUSH1 0x0 DUP1 REVERT JUMPDEST POP PUSH2 0x13C PUSH1 0x4 DUP1 CALLDATASIZE SUB DUP2 ADD SWAP1 PUSH2 0x137 SWAP2 SWAP1 PUSH2 0x5AA JUMP JUMPDEST PUSH2 0x2F3 JUMP JUMPDEST STOP JUMPDEST CALLVALUE DUP1 ISZERO PUSH2 0x14A JUMPI PUSH1 0x0 DUP1 REVERT JUMPDEST POP PUSH2 0x165 PUSH1 0x4 DUP1 CALLDATASIZE SUB DUP2 ADD SWAP1 PUSH2 0x160 SWAP2 SWAP1 PUSH2 0x60F JUMP JUMPDEST PUSH2 0x377 JUMP JUMPDEST STOP JUMPDEST JUMP JUMPDEST PUSH2 0x171 PUSH2 0x3C7 JUMP JUMPDEST PUSH2 0x17B PUSH1 0x0 PUSH2 0x445 JUMP JUMPDEST JUMP JUMPDEST PUSH1 0x0 DUP1 PUSH1 0x0 SWAP1 SLOAD SWAP1 PUSH2 0x100 EXP SWAP1 DIV PUSH20 0xFFFFFFFFFFFFFFFFFFFFFFFFFFFFFFFFFFFFFFFF AND SWAP1 POP SWAP1 JUMP JUMPDEST PUSH1 0x0 CALLER PUSH20 0xFFFFFFFFFFFFFFFFFFFFFFFFFFFFFFFFFFFFFFFF AND PUSH1 0x2 PUSH1 0x0 SWAP1 SLOAD SWAP1 PUSH2 0x100 EXP SWAP1 DIV PUSH20 0xFFFFFFFFFFFFFFFFFFFFFFFFFFFFFFFFFFFFFFFF AND PUSH20 0xFFFFFFFFFFFFFFFFFFFFFFFFFFFFFFFFFFFFFFFF AND EQ SWAP1 POP SWAP1 JUMP JUMPDEST DUP1 PUSH2 0x207 PUSH2 0x1A6 JUMP JUMPDEST DUP1 PUSH2 0x251 JUMPI POP DUP1 PUSH1 0x1 PUSH1 0x0 CALLER PUSH20 0xFFFFFFFFFFFFFFFFFFFFFFFFFFFFFFFFFFFFFFFF AND PUSH20 0xFFFFFFFFFFFFFFFFFFFFFFFFFFFFFFFFFFFFFFFF AND DUP2 MSTORE PUSH1 0x20 ADD SWAP1 DUP2 MSTORE PUSH1 0x20 ADD PUSH1 0x0 KECCAK256 SLOAD LT ISZERO JUMPDEST PUSH2 0x290 JUMPI PUSH1 0x40 MLOAD PUSH32 0x8C379A000000000000000000000000000000000000000000000000000000000 DUP2 MSTORE PUSH1 0x4 ADD PUSH2 0x287 SWAP1 PUSH2 0x7A5 JUMP JUMPDEST PUSH1 0x40 MLOAD DUP1 SWAP2 SUB SWAP1 REVERT JUMPDEST PUSH2 0x298 PUSH2 0x1A6 JUMP JUMPDEST PUSH2 0x2A7 JUMPI PUSH2 0x2A6 CALLER DUP4 PUSH2 0x509 JUMP JUMPDEST JUMPDEST DUP3 PUSH20 0xFFFFFFFFFFFFFFFFFFFFFFFFFFFFFFFFFFFFFFFF AND PUSH2 0x8FC DUP4 SWAP1 DUP2 ISZERO MUL SWAP1 PUSH1 0x40 MLOAD PUSH1 0x0 PUSH1 0x40 MLOAD DUP1 DUP4 SUB DUP2 DUP6 DUP9 DUP9 CALL SWAP4 POP POP POP POP ISZERO DUP1 ISZERO PUSH2 0x2ED JUMPI RETURNDATASIZE PUSH1 0x0 DUP1 RETURNDATACOPY RETURNDATASIZE PUSH1 0x0 REVERT JUMPDEST POP POP POP POP JUMP JUMPDEST PUSH2 0x2FB PUSH2 0x3C7 JUMP JUMPDEST PUSH1 0x0 PUSH20 0xFFFFFFFFFFFFFFFFFFFFFFFFFFFFFFFFFFFFFFFF AND DUP2 PUSH20 0xFFFFFFFFFFFFFFFFFFFFFFFFFFFFFFFFFFFFFFFF AND EQ ISZERO PUSH2 0x36B JUMPI PUSH1 0x40 MLOAD PUSH32 0x8C379A000000000000000000000000000000000000000000000000000000000 DUP2 MSTORE PUSH1 0x4 ADD PUSH2 0x362 SWAP1 PUSH2 0x785 JUMP JUMPDEST PUSH1 0x40 MLOAD DUP1 SWAP2 SUB SWAP1 REVERT JUMPDEST PUSH2 0x374 DUP2 PUSH2 0x445 JUMP JUMPDEST POP JUMP JUMPDEST PUSH2 0x37F PUSH2 0x3C7 JUMP JUMPDEST DUP1 PUSH1 0x1 PUSH1 0x0 DUP5 PUSH20 0xFFFFFFFFFFFFFFFFFFFFFFFFFFFFFFFFFFFFFFFF AND PUSH20 0xFFFFFFFFFFFFFFFFFFFFFFFFFFFFFFFFFFFFFFFF AND DUP2 MSTORE PUSH1 0x20 ADD SWAP1 DUP2 MSTORE PUSH1 0x20 ADD PUSH1 0x0 KECCAK256 DUP2 SWAP1 SSTORE POP POP POP JUMP JUMPDEST PUSH2 0x3CF PUSH2 0x563 JUMP JUMPDEST PUSH20 0xFFFFFFFFFFFFFFFFFFFFFFFFFFFFFFFFFFFFFFFF AND PUSH2 0x3ED PUSH2 0x17D JUMP JUMPDEST PUSH20 0xFFFFFFFFFFFFFFFFFFFFFFFFFFFFFFFFFFFFFFFF AND EQ PUSH2 0x443 JUMPI PUSH1 0x40 MLOAD PUSH32 0x8C379A000000000000000000000000000000000000000000000000000000000 DUP2 MSTORE PUSH1 0x4 ADD PUSH2 0x43A SWAP1 PUSH2 0x7C5 JUMP JUMPDEST PUSH1 0x40 MLOAD DUP1 SWAP2 SUB SWAP1 REVERT JUMPDEST JUMP JUMPDEST PUSH1 0x0 DUP1 PUSH1 0x0 SWAP1 SLOAD SWAP1 PUSH2 0x100 EXP SWAP1 DIV PUSH20 0xFFFFFFFFFFFFFFFFFFFFFFFFFFFFFFFFFFFFFFFF AND SWAP1 POP DUP2 PUSH1 0x0 DUP1 PUSH2 0x100 EXP DUP2 SLOAD DUP2 PUSH20 0xFFFFFFFFFFFFFFFFFFFFFFFFFFFFFFFFFFFFFFFF MUL NOT AND SWAP1 DUP4 PUSH20 0xFFFFFFFFFFFFFFFFFFFFFFFFFFFFFFFFFFFFFFFF AND MUL OR SWAP1 SSTORE POP DUP2 PUSH20 0xFFFFFFFFFFFFFFFFFFFFFFFFFFFFFFFFFFFFFFFF AND DUP2 PUSH20 0xFFFFFFFFFFFFFFFFFFFFFFFFFFFFFFFFFFFFFFFF AND PUSH32 0x8BE0079C531659141344CD1FD0A4F28419497F9722A3DAAFE3B4186F6B6457E0 PUSH1 0x40 MLOAD PUSH1 0x40 MLOAD DUP1 SWAP2 SUB SWAP1 LOG3 POP POP JUMP JUMPDEST DUP1 PUSH1 0x1 PUSH1 0x0 DUP5 PUSH20 0xFFFFFFFFFFFFFFFFFFFFFFFFFFFFFFFFFFFFFFFF AND PUSH20 0xFFFFFFFFFFFFFFFFFFFFFFFFFFFFFFFFFFFFFFFF AND DUP2 MSTORE PUSH1 0x20 ADD SWAP1 DUP2 MSTORE PUSH1 0x20 ADD PUSH1 0x0 KECCAK256 PUSH1 0x0 DUP3 DUP3 SLOAD PUSH2 0x558 SWAP2 SWAP1 PUSH2 0x7F6 JUMP JUMPDEST SWAP3 POP POP DUP2 SWAP1 SSTORE POP POP POP JUMP JUMPDEST PUSH1 0x0 CALLER SWAP1 POP SWAP1 JUMP JUMPDEST PUSH1 0x0 DUP2 CALLDATALOAD SWAP1 POP PUSH2 0x57A DUP2 PUSH2 0x8B3 JUMP JUMPDEST SWAP3 SWAP2 POP POP JUMP JUMPDEST PUSH1 0x0 DUP2 CALLDATALOAD SWAP1 POP PUSH2 0x58F DUP2 PUSH2 0x8CA JUMP JUMPDEST SWAP3 SWAP2 POP POP JUMP JUMPDEST PUSH1 0x0 DUP2 CALLDATALOAD SWAP1 POP PUSH2 0x5A4 DUP2 PUSH2 0x8E1 JUMP JUMPDEST SWAP3 SWAP2 POP POP JUMP JUMPDEST PUSH1 0x0 PUSH1 0x20 DUP3 DUP5 SUB SLT ISZERO PUSH2 0x5BC JUMPI PUSH1 0x0 DUP1 REVERT JUMPDEST PUSH1 0x0 PUSH2 0x5CA DUP5 DUP3 DUP6 ADD PUSH2 0x56B JUMP JUMPDEST SWAP2 POP POP SWAP3 SWAP2 POP POP JUMP JUMPDEST PUSH1 0x0 DUP1 PUSH1 0x40 DUP4 DUP6 SUB SLT ISZERO PUSH2 0x5E6 JUMPI PUSH1 0x0 DUP1 REVERT JUMPDEST PUSH1 0x0 PUSH2 0x5F4 DUP6 DUP3 DUP7 ADD PUSH2 0x580 JUMP JUMPDEST SWAP3 POP POP PUSH1 0x20 PUSH2 0x605 DUP6 DUP3 DUP7 ADD PUSH2 0x595 JUMP JUMPDEST SWAP2 POP POP SWAP3 POP SWAP3 SWAP1 POP JUMP JUMPDEST PUSH1 0x0 DUP1 PUSH1 0x40 DUP4 DUP6 SUB SLT ISZERO PUSH2 0x622 JUMPI PUSH1 0x0 DUP1 REVERT JUMPDEST PUSH1 0x0 PUSH2 0x630 DUP6 DUP3 DUP7 ADD PUSH2 0x56B JUMP JUMPDEST SWAP3 POP POP PUSH1 0x20 PUSH2 0x641 DUP6 DUP3 DUP7 ADD PUSH2 0x595 JUMP JUMPDEST SWAP2 POP POP SWAP3 POP SWAP3 SWAP1 POP JUMP JUMPDEST PUSH2 0x654 DUP2 PUSH2 0x82A JUMP JUMPDEST DUP3 MSTORE POP POP JUMP JUMPDEST PUSH2 0x663 DUP2 PUSH2 0x84E JUMP JUMPDEST DUP3 MSTORE POP POP JUMP JUMPDEST PUSH1 0x0 PUSH2 0x676 PUSH1 0x26 DUP4 PUSH2 0x7E5 JUMP JUMPDEST SWAP2 POP PUSH32 0x4F776E61626C653A206E6577206F776E657220697320746865207A65726F2061 PUSH1 0x0 DUP4 ADD MSTORE PUSH32 0x6464726573730000000000000000000000000000000000000000000000000000 PUSH1 0x20 DUP4 ADD MSTORE PUSH1 0x40 DUP3 ADD SWAP1 POP SWAP2 SWAP1 POP JUMP JUMPDEST PUSH1 0x0 PUSH2 0x6DC PUSH1 0x13 DUP4 PUSH2 0x7E5 JUMP JUMPDEST SWAP2 POP PUSH32 0x596F7520617265206E6F7420616C6C6F77656400000000000000000000000000 PUSH1 0x0 DUP4 ADD MSTORE PUSH1 0x20 DUP3 ADD SWAP1 POP SWAP2 SWAP1 POP JUMP JUMPDEST PUSH1 0x0 PUSH2 0x71C PUSH1 0x20 DUP4 PUSH2 0x7E5 JUMP JUMPDEST SWAP2 POP PUSH32 0x4F776E61626C653A2063616C6C6572206973206E6F7420746865206F776E6572 PUSH1 0x0 DUP4 ADD MSTORE PUSH1 0x20 DUP3 ADD SWAP1 POP SWAP2 SWAP1 POP JUMP JUMPDEST PUSH1 0x0 PUSH1 0x20 DUP3 ADD SWAP1 POP PUSH2 0x764 PUSH1 0x0 DUP4 ADD DUP5 PUSH2 0x64B JUMP JUMPDEST SWAP3 SWAP2 POP POP JUMP JUMPDEST PUSH1 0x0 PUSH1 0x20 DUP3 ADD SWAP1 POP PUSH2 0x77F PUSH1 0x0 DUP4 ADD DUP5 PUSH2 0x65A JUMP JUMPDEST SWAP3 SWAP2 POP POP JUMP JUMPDEST PUSH1 0x0 PUSH1 0x20 DUP3 ADD SWAP1 POP DUP2 DUP2 SUB PUSH1 0x0 DUP4 ADD MSTORE PUSH2 0x79E DUP2 PUSH2 0x669 JUMP JUMPDEST SWAP1 POP SWAP2 SWAP1 POP JUMP JUMPDEST PUSH1 0x0 PUSH1 0x20 DUP3 ADD SWAP1 POP DUP2 DUP2 SUB PUSH1 0x0 DUP4 ADD MSTORE PUSH2 0x7BE DUP2 PUSH2 0x6CF JUMP JUMPDEST SWAP1 POP SWAP2 SWAP1 POP JUMP JUMPDEST PUSH1 0x0 PUSH1 0x20 DUP3 ADD SWAP1 POP DUP2 DUP2 SUB PUSH1 0x0 DUP4 ADD MSTORE PUSH2 0x7DE DUP2 PUSH2 0x70F JUMP JUMPDEST SWAP1 POP SWAP2 SWAP1 POP JUMP JUMPDEST PUSH1 0x0 DUP3 DUP3 MSTORE PUSH1 0x20 DUP3 ADD SWAP1 POP SWAP3 SWAP2 POP POP JUMP JUMPDEST PUSH1 0x0 PUSH2 0x801 DUP3 PUSH2 0x87A JUMP JUMPDEST SWAP2 POP PUSH2 0x80C DUP4 PUSH2 0x87A JUMP JUMPDEST SWAP3 POP DUP3 DUP3 LT ISZERO PUSH2 0x81F JUMPI PUSH2 0x81E PUSH2 0x884 JUMP JUMPDEST JUMPDEST DUP3 DUP3 SUB SWAP1 POP SWAP3 SWAP2 POP POP JUMP JUMPDEST PUSH1 0x0 PUSH2 0x835 DUP3 PUSH2 0x85A JUMP JUMPDEST SWAP1 POP SWAP2 SWAP1 POP JUMP JUMPDEST PUSH1 0x0 PUSH2 0x847 DUP3 PUSH2 0x85A JUMP JUMPDEST SWAP1 POP SWAP2 SWAP1 POP JUMP JUMPDEST PUSH1 0x0 DUP2 ISZERO ISZERO SWAP1 POP SWAP2 SWAP1 POP JUMP JUMPDEST PUSH1 0x0 PUSH20 0xFFFFFFFFFFFFFFFFFFFFFFFFFFFFFFFFFFFFFFFF DUP3 AND SWAP1 POP SWAP2 SWAP1 POP JUMP JUMPDEST PUSH1 0x0 DUP2 SWAP1 POP SWAP2 SWAP1 POP JUMP JUMPDEST PUSH32 0x4E487B7100000000000000000000000000000000000000000000000000000000 PUSH1 0x0 MSTORE PUSH1 0x11 PUSH1 0x4 MSTORE PUSH1 0x24 PUSH1 0x0 REVERT JUMPDEST PUSH2 0x8BC DUP2 PUSH2 0x82A JUMP JUMPDEST DUP2 EQ PUSH2 0x8C7 JUMPI PUSH1 0x0 DUP1 REVERT JUMPDEST POP JUMP JUMPDEST PUSH2 0x8D3 DUP2 PUSH2 0x83C JUMP JUMPDEST DUP2 EQ PUSH2 0x8DE JUMPI PUSH1 0x0 DUP1 REVERT JUMPDEST POP JUMP JUMPDEST PUSH2 0x8EA DUP2 PUSH2 0x87A JUMP JUMPDEST DUP2 EQ PUSH2 0x8F5 JUMPI PUSH1 0x0 DUP1 REVERT JUMPDEST POP JUMP INVALID LOG2 PUSH5 0x6970667358 0x22 SLT KECCAK256 0x5E 0xCC 0xD 0xD5 0xEC 0xC0 CALLDATASIZE 0x5E ORIGIN 0xDB PUSH24 0x81EA021F0A2DE4829D318644E680CA288904516CD764736F PUSH13 0x63430008000033000000000000 "
				},
				"gasEstimates": {
					"creation": {
						"codeDepositCost": "470000",
						"executionCost": "infinite",
						"totalCost": "infinite"
					},
					"external": {
						"addAllowance(address,uint256)": "21762",
						"isOwner()": "1196",
						"owner()": "1267",
						"receiveMoney()": "121",
						"renounceOwnership()": "24421",
						"transferOwnership(address)": "24791",
						"withdrawMoney(address,uint256)": "infinite"
					},
					"internal": {
						"reduceAllowance(address,uint256)": "infinite"
					}
				},
				"methodIdentifiers": {
					"addAllowance(address,uint256)": "f3c40c4b",
					"isOwner()": "8f32d59b",
					"owner()": "8da5cb5b",
					"receiveMoney()": "6d26ec18",
					"renounceOwnership()": "715018a6",
					"transferOwnership(address)": "f2fde38b",
					"withdrawMoney(address,uint256)": "f274c897"
				}
			},
			"storageLayout": {
				"storage": [
					{
						"astId": 120,
						"contract": "Wallet/NewWallet.sol:Wallet",
						"label": "_owner",
						"offset": 0,
						"slot": "0",
						"type": "t_address"
					},
					{
						"astId": 8,
						"contract": "Wallet/NewWallet.sol:Wallet",
						"label": "allowance",
						"offset": 0,
						"slot": "1",
						"type": "t_mapping(t_address,t_uint256)"
					},
					{
						"astId": 10,
						"contract": "Wallet/NewWallet.sol:Wallet",
						"label": "_owner",
						"offset": 0,
						"slot": "2",
						"type": "t_address"
					}
				],
				"types": {
					"t_address": {
						"encoding": "inplace",
						"label": "address",
						"numberOfBytes": "20"
					},
					"t_mapping(t_address,t_uint256)": {
						"encoding": "mapping",
						"key": "t_address",
						"label": "mapping(address => uint256)",
						"numberOfBytes": "32",
						"value": "t_uint256"
					},
					"t_uint256": {
						"encoding": "inplace",
						"label": "uint256",
						"numberOfBytes": "32"
					}
				}
			},
			"userdoc": {
				"kind": "user",
				"methods": {},
				"version": 1
			}
		}
	}
}