{
	"Wallet/NewWallet.sol": {
		"Allowance": {
			"abi": [
				{
					"inputs": [],
					"stateMutability": "nonpayable",
					"type": "constructor"
				},
				{
					"anonymous": false,
					"inputs": [
						{
							"indexed": true,
							"internalType": "address",
							"name": "_forWho",
							"type": "address"
						},
						{
							"indexed": true,
							"internalType": "address",
							"name": "_fromWhom",
							"type": "address"
						},
						{
							"indexed": false,
							"internalType": "uint256",
							"name": "_oldAmount",
							"type": "uint256"
						},
						{
							"indexed": false,
							"internalType": "uint256",
							"name": "_newAmount",
							"type": "uint256"
						}
					],
					"name": "AllowanceChhange",
					"type": "event"
				},
				{
					"anonymous": false,
					"inputs": [
						{
							"indexed": true,
							"internalType": "address",
							"name": "previousOwner",
							"type": "address"
						},
						{
							"indexed": true,
							"internalType": "address",
							"name": "newOwner",
							"type": "address"
						}
					],
					"name": "OwnershipTransferred",
					"type": "event"
				},
				{
					"inputs": [
						{
							"internalType": "address",
							"name": "_who",
							"type": "address"
						},
						{
							"internalType": "uint256",
							"name": "_amount",
							"type": "uint256"
						}
					],
					"name": "addAllowance",
					"outputs": [],
					"stateMutability": "nonpayable",
					"type": "function"
				},
				{
					"inputs": [
						{
							"internalType": "address",
							"name": "",
							"type": "address"
						}
					],
					"name": "allowance",
					"outputs": [
						{
							"internalType": "uint256",
							"name": "",
							"type": "uint256"
						}
					],
					"stateMutability": "view",
					"type": "function"
				},
				{
					"inputs": [],
					"name": "isOwner",
					"outputs": [
						{
							"internalType": "bool",
							"name": "",
							"type": "bool"
						}
					],
					"stateMutability": "view",
					"type": "function"
				},
				{
					"inputs": [],
					"name": "owner",
					"outputs": [
						{
							"internalType": "address",
							"name": "",
							"type": "address"
						}
					],
					"stateMutability": "view",
					"type": "function"
				},
				{
					"inputs": [],
					"name": "renounceOwnership",
					"outputs": [],
					"stateMutability": "nonpayable",
					"type": "function"
				},
				{
					"inputs": [
						{
							"internalType": "address",
							"name": "newOwner",
							"type": "address"
						}
					],
					"name": "transferOwnership",
					"outputs": [],
					"stateMutability": "nonpayable",
					"type": "function"
				}
			],
			"devdoc": {
				"kind": "dev",
				"methods": {
					"owner()": {
						"details": "Returns the address of the current owner."
					},
					"renounceOwnership()": {
						"details": "Leaves the contract without owner. It will not be possible to call `onlyOwner` functions anymore. Can only be called by the current owner. NOTE: Renouncing ownership will leave the contract without an owner, thereby removing any functionality that is only available to the owner."
					},
					"transferOwnership(address)": {
						"details": "Transfers ownership of the contract to a new account (`newOwner`). Can only be called by the current owner."
					}
				},
				"version": 1
			},
			"evm": {
				"assembly": "    /* \"Wallet/NewWallet.sol\":174:1149  contract Allowance is Ownable{\r... */\n  mstore(0x40, 0x80)\n    /* \"Wallet/NewWallet.sol\":409:461  constructor() {\r... */\n  callvalue\n  dup1\n  iszero\n  tag_1\n  jumpi\n  0x00\n  dup1\n  revert\ntag_1:\n  pop\n    /* \"https://github.com/OpenZeppelin/openzeppelin-contracts/blob/master/contracts/access/Ownable.sol\":936:968  _transferOwnership(_msgSender()) */\n  tag_5\n    /* \"https://github.com/OpenZeppelin/openzeppelin-contracts/blob/master/contracts/access/Ownable.sol\":955:967  _msgSender() */\n  tag_6\n    /* \"https://github.com/OpenZeppelin/openzeppelin-contracts/blob/master/contracts/access/Ownable.sol\":955:965  _msgSender */\n  shl(0x20, tag_7)\n    /* \"https://github.com/OpenZeppelin/openzeppelin-contracts/blob/master/contracts/access/Ownable.sol\":955:967  _msgSender() */\n  0x20\n  shr\n  jump\t// in\ntag_6:\n    /* \"https://github.com/OpenZeppelin/openzeppelin-contracts/blob/master/contracts/access/Ownable.sol\":936:954  _transferOwnership */\n  shl(0x20, tag_8)\n    /* \"https://github.com/OpenZeppelin/openzeppelin-contracts/blob/master/contracts/access/Ownable.sol\":936:968  _transferOwnership(_msgSender()) */\n  0x20\n  shr\n  jump\t// in\ntag_5:\n    /* \"Wallet/NewWallet.sol\":443:453  msg.sender */\n  caller\n    /* \"Wallet/NewWallet.sol\":434:440  _owner */\n  0x02\n  0x00\n    /* \"Wallet/NewWallet.sol\":434:453  _owner = msg.sender */\n  0x0100\n  exp\n  dup2\n  sload\n  dup2\n  0xffffffffffffffffffffffffffffffffffffffff\n  mul\n  not\n  and\n  swap1\n  dup4\n  0xffffffffffffffffffffffffffffffffffffffff\n  and\n  mul\n  or\n  swap1\n  sstore\n  pop\n    /* \"Wallet/NewWallet.sol\":174:1149  contract Allowance is Ownable{\r... */\n  jump(tag_10)\n    /* \"https://github.com/OpenZeppelin/openzeppelin-contracts/blob/master/contracts/utils/Context.sol\":640:736  function _msgSender() internal view virtual returns (address) {... */\ntag_7:\n    /* \"https://github.com/OpenZeppelin/openzeppelin-contracts/blob/master/contracts/utils/Context.sol\":693:700  address */\n  0x00\n    /* \"https://github.com/OpenZeppelin/openzeppelin-contracts/blob/master/contracts/utils/Context.sol\":719:729  msg.sender */\n  caller\n    /* \"https://github.com/OpenZeppelin/openzeppelin-contracts/blob/master/contracts/utils/Context.sol\":712:729  return msg.sender */\n  swap1\n  pop\n    /* \"https://github.com/OpenZeppelin/openzeppelin-contracts/blob/master/contracts/utils/Context.sol\":640:736  function _msgSender() internal view virtual returns (address) {... */\n  swap1\n  jump\t// out\n    /* \"https://github.com/OpenZeppelin/openzeppelin-contracts/blob/master/contracts/access/Ownable.sol\":2433:2620  function _transferOwnership(address newOwner) internal virtual {... */\ntag_8:\n    /* \"https://github.com/OpenZeppelin/openzeppelin-contracts/blob/master/contracts/access/Ownable.sol\":2506:2522  address oldOwner */\n  0x00\n    /* \"https://github.com/OpenZeppelin/openzeppelin-contracts/blob/master/contracts/access/Ownable.sol\":2525:2531  _owner */\n  dup1\n  0x00\n  swap1\n  sload\n  swap1\n  0x0100\n  exp\n  swap1\n  div\n  0xffffffffffffffffffffffffffffffffffffffff\n  and\n    /* \"https://github.com/OpenZeppelin/openzeppelin-contracts/blob/master/contracts/access/Ownable.sol\":2506:2531  address oldOwner = _owner */\n  swap1\n  pop\n    /* \"https://github.com/OpenZeppelin/openzeppelin-contracts/blob/master/contracts/access/Ownable.sol\":2550:2558  newOwner */\n  dup2\n    /* \"https://github.com/OpenZeppelin/openzeppelin-contracts/blob/master/contracts/access/Ownable.sol\":2541:2547  _owner */\n  0x00\n  dup1\n    /* \"https://github.com/OpenZeppelin/openzeppelin-contracts/blob/master/contracts/access/Ownable.sol\":2541:2558  _owner = newOwner */\n  0x0100\n  exp\n  dup2\n  sload\n  dup2\n  0xffffffffffffffffffffffffffffffffffffffff\n  mul\n  not\n  and\n  swap1\n  dup4\n  0xffffffffffffffffffffffffffffffffffffffff\n  and\n  mul\n  or\n  swap1\n  sstore\n  pop\n    /* \"https://github.com/OpenZeppelin/openzeppelin-contracts/blob/master/contracts/access/Ownable.sol\":2604:2612  newOwner */\n  dup2\n    /* \"https://github.com/OpenZeppelin/openzeppelin-contracts/blob/master/contracts/access/Ownable.sol\":2573:2613  OwnershipTransferred(oldOwner, newOwner) */\n  0xffffffffffffffffffffffffffffffffffffffff\n  and\n    /* \"https://github.com/OpenZeppelin/openzeppelin-contracts/blob/master/contracts/access/Ownable.sol\":2594:2602  oldOwner */\n  dup2\n    /* \"https://github.com/OpenZeppelin/openzeppelin-contracts/blob/master/contracts/access/Ownable.sol\":2573:2613  OwnershipTransferred(oldOwner, newOwner) */\n  0xffffffffffffffffffffffffffffffffffffffff\n  and\n  0x8be0079c531659141344cd1fd0a4f28419497f9722a3daafe3b4186f6b6457e0\n  mload(0x40)\n  mload(0x40)\n  dup1\n  swap2\n  sub\n  swap1\n  log3\n    /* \"https://github.com/OpenZeppelin/openzeppelin-contracts/blob/master/contracts/access/Ownable.sol\":2496:2620  {... */\n  pop\n    /* \"https://github.com/OpenZeppelin/openzeppelin-contracts/blob/master/contracts/access/Ownable.sol\":2433:2620  function _transferOwnership(address newOwner) internal virtual {... */\n  pop\n  jump\t// out\n    /* \"Wallet/NewWallet.sol\":174:1149  contract Allowance is Ownable{\r... */\ntag_10:\n  dataSize(sub_0)\n  dup1\n  dataOffset(sub_0)\n  0x00\n  codecopy\n  0x00\n  return\nstop\n\nsub_0: assembly {\n        /* \"Wallet/NewWallet.sol\":174:1149  contract Allowance is Ownable{\r... */\n      mstore(0x40, 0x80)\n      callvalue\n      dup1\n      iszero\n      tag_1\n      jumpi\n      0x00\n      dup1\n      revert\n    tag_1:\n      pop\n      jumpi(tag_2, lt(calldatasize, 0x04))\n      shr(0xe0, calldataload(0x00))\n      dup1\n      0x3e5beab9\n      eq\n      tag_3\n      jumpi\n      dup1\n      0x715018a6\n      eq\n      tag_4\n      jumpi\n      dup1\n      0x8da5cb5b\n      eq\n      tag_5\n      jumpi\n      dup1\n      0x8f32d59b\n      eq\n      tag_6\n      jumpi\n      dup1\n      0xf2fde38b\n      eq\n      tag_7\n      jumpi\n      dup1\n      0xf3c40c4b\n      eq\n      tag_8\n      jumpi\n    tag_2:\n      0x00\n      dup1\n      revert\n        /* \"Wallet/NewWallet.sol\":334:376  mapping (address => uint) public allowance */\n    tag_3:\n      tag_9\n      0x04\n      dup1\n      calldatasize\n      sub\n      dup2\n      add\n      swap1\n      tag_10\n      swap2\n      swap1\n      tag_11\n      jump\t// in\n    tag_10:\n      tag_12\n      jump\t// in\n    tag_9:\n      mload(0x40)\n      tag_13\n      swap2\n      swap1\n      tag_14\n      jump\t// in\n    tag_13:\n      mload(0x40)\n      dup1\n      swap2\n      sub\n      swap1\n      return\n        /* \"https://github.com/OpenZeppelin/openzeppelin-contracts/blob/master/contracts/access/Ownable.sol\":1831:1932  function renounceOwnership() public virtual onlyOwner {... */\n    tag_4:\n      tag_15\n      tag_16\n      jump\t// in\n    tag_15:\n      stop\n        /* \"https://github.com/OpenZeppelin/openzeppelin-contracts/blob/master/contracts/access/Ownable.sol\":1201:1286  function owner() public view virtual returns (address) {... */\n    tag_5:\n      tag_17\n      tag_18\n      jump\t// in\n    tag_17:\n      mload(0x40)\n      tag_19\n      swap2\n      swap1\n      tag_20\n      jump\t// in\n    tag_19:\n      mload(0x40)\n      dup1\n      swap2\n      sub\n      swap1\n      return\n        /* \"Wallet/NewWallet.sol\":475:568  function isOwner() public view returns(bool) {\r... */\n    tag_6:\n      tag_21\n      tag_22\n      jump\t// in\n    tag_21:\n      mload(0x40)\n      tag_23\n      swap2\n      swap1\n      tag_24\n      jump\t// in\n    tag_23:\n      mload(0x40)\n      dup1\n      swap2\n      sub\n      swap1\n      return\n        /* \"https://github.com/OpenZeppelin/openzeppelin-contracts/blob/master/contracts/access/Ownable.sol\":2081:2279  function transferOwnership(address newOwner) public virtual onlyOwner {... */\n    tag_7:\n      tag_25\n      0x04\n      dup1\n      calldatasize\n      sub\n      dup2\n      add\n      swap1\n      tag_26\n      swap2\n      swap1\n      tag_11\n      jump\t// in\n    tag_26:\n      tag_27\n      jump\t// in\n    tag_25:\n      stop\n        /* \"Wallet/NewWallet.sol\":576:774  function addAllowance(address _who , uint _amount) external onlyOwner{\r... */\n    tag_8:\n      tag_28\n      0x04\n      dup1\n      calldatasize\n      sub\n      dup2\n      add\n      swap1\n      tag_29\n      swap2\n      swap1\n      tag_30\n      jump\t// in\n    tag_29:\n      tag_31\n      jump\t// in\n    tag_28:\n      stop\n        /* \"Wallet/NewWallet.sol\":334:376  mapping (address => uint) public allowance */\n    tag_12:\n      mstore(0x20, 0x01)\n      dup1\n      0x00\n      mstore\n      keccak256(0x00, 0x40)\n      0x00\n      swap2\n      pop\n      swap1\n      pop\n      sload\n      dup2\n      jump\t// out\n        /* \"https://github.com/OpenZeppelin/openzeppelin-contracts/blob/master/contracts/access/Ownable.sol\":1831:1932  function renounceOwnership() public virtual onlyOwner {... */\n    tag_16:\n        /* \"https://github.com/OpenZeppelin/openzeppelin-contracts/blob/master/contracts/access/Ownable.sol\":1094:1107  _checkOwner() */\n      tag_33\n        /* \"https://github.com/OpenZeppelin/openzeppelin-contracts/blob/master/contracts/access/Ownable.sol\":1094:1105  _checkOwner */\n      tag_34\n        /* \"https://github.com/OpenZeppelin/openzeppelin-contracts/blob/master/contracts/access/Ownable.sol\":1094:1107  _checkOwner() */\n      jump\t// in\n    tag_33:\n        /* \"https://github.com/OpenZeppelin/openzeppelin-contracts/blob/master/contracts/access/Ownable.sol\":1895:1925  _transferOwnership(address(0)) */\n      tag_36\n        /* \"https://github.com/OpenZeppelin/openzeppelin-contracts/blob/master/contracts/access/Ownable.sol\":1922:1923  0 */\n      0x00\n        /* \"https://github.com/OpenZeppelin/openzeppelin-contracts/blob/master/contracts/access/Ownable.sol\":1895:1913  _transferOwnership */\n      tag_37\n        /* \"https://github.com/OpenZeppelin/openzeppelin-contracts/blob/master/contracts/access/Ownable.sol\":1895:1925  _transferOwnership(address(0)) */\n      jump\t// in\n    tag_36:\n        /* \"https://github.com/OpenZeppelin/openzeppelin-contracts/blob/master/contracts/access/Ownable.sol\":1831:1932  function renounceOwnership() public virtual onlyOwner {... */\n      jump\t// out\n        /* \"https://github.com/OpenZeppelin/openzeppelin-contracts/blob/master/contracts/access/Ownable.sol\":1201:1286  function owner() public view virtual returns (address) {... */\n    tag_18:\n        /* \"https://github.com/OpenZeppelin/openzeppelin-contracts/blob/master/contracts/access/Ownable.sol\":1247:1254  address */\n      0x00\n        /* \"https://github.com/OpenZeppelin/openzeppelin-contracts/blob/master/contracts/access/Ownable.sol\":1273:1279  _owner */\n      dup1\n      0x00\n      swap1\n      sload\n      swap1\n      0x0100\n      exp\n      swap1\n      div\n      0xffffffffffffffffffffffffffffffffffffffff\n      and\n        /* \"https://github.com/OpenZeppelin/openzeppelin-contracts/blob/master/contracts/access/Ownable.sol\":1266:1279  return _owner */\n      swap1\n      pop\n        /* \"https://github.com/OpenZeppelin/openzeppelin-contracts/blob/master/contracts/access/Ownable.sol\":1201:1286  function owner() public view virtual returns (address) {... */\n      swap1\n      jump\t// out\n        /* \"Wallet/NewWallet.sol\":475:568  function isOwner() public view returns(bool) {\r... */\n    tag_22:\n        /* \"Wallet/NewWallet.sol\":514:518  bool */\n      0x00\n        /* \"Wallet/NewWallet.sol\":549:559  msg.sender */\n      caller\n        /* \"Wallet/NewWallet.sol\":539:559  _owner == msg.sender */\n      0xffffffffffffffffffffffffffffffffffffffff\n      and\n        /* \"Wallet/NewWallet.sol\":539:545  _owner */\n      0x02\n      0x00\n      swap1\n      sload\n      swap1\n      0x0100\n      exp\n      swap1\n      div\n      0xffffffffffffffffffffffffffffffffffffffff\n      and\n        /* \"Wallet/NewWallet.sol\":539:559  _owner == msg.sender */\n      0xffffffffffffffffffffffffffffffffffffffff\n      and\n      eq\n        /* \"Wallet/NewWallet.sol\":532:559  return _owner == msg.sender */\n      swap1\n      pop\n        /* \"Wallet/NewWallet.sol\":475:568  function isOwner() public view returns(bool) {\r... */\n      swap1\n      jump\t// out\n        /* \"https://github.com/OpenZeppelin/openzeppelin-contracts/blob/master/contracts/access/Ownable.sol\":2081:2279  function transferOwnership(address newOwner) public virtual onlyOwner {... */\n    tag_27:\n        /* \"https://github.com/OpenZeppelin/openzeppelin-contracts/blob/master/contracts/access/Ownable.sol\":1094:1107  _checkOwner() */\n      tag_41\n        /* \"https://github.com/OpenZeppelin/openzeppelin-contracts/blob/master/contracts/access/Ownable.sol\":1094:1105  _checkOwner */\n      tag_34\n        /* \"https://github.com/OpenZeppelin/openzeppelin-contracts/blob/master/contracts/access/Ownable.sol\":1094:1107  _checkOwner() */\n      jump\t// in\n    tag_41:\n        /* \"https://github.com/OpenZeppelin/openzeppelin-contracts/blob/master/contracts/access/Ownable.sol\":2189:2190  0 */\n      0x00\n        /* \"https://github.com/OpenZeppelin/openzeppelin-contracts/blob/master/contracts/access/Ownable.sol\":2169:2191  newOwner != address(0) */\n      0xffffffffffffffffffffffffffffffffffffffff\n      and\n        /* \"https://github.com/OpenZeppelin/openzeppelin-contracts/blob/master/contracts/access/Ownable.sol\":2169:2177  newOwner */\n      dup2\n        /* \"https://github.com/OpenZeppelin/openzeppelin-contracts/blob/master/contracts/access/Ownable.sol\":2169:2191  newOwner != address(0) */\n      0xffffffffffffffffffffffffffffffffffffffff\n      and\n      eq\n      iszero\n        /* \"https://github.com/OpenZeppelin/openzeppelin-contracts/blob/master/contracts/access/Ownable.sol\":2161:2234  require(newOwner != address(0), \"Ownable: new owner is the zero address\") */\n      tag_43\n      jumpi\n      mload(0x40)\n      0x08c379a000000000000000000000000000000000000000000000000000000000\n      dup2\n      mstore\n      0x04\n      add\n      tag_44\n      swap1\n      tag_45\n      jump\t// in\n    tag_44:\n      mload(0x40)\n      dup1\n      swap2\n      sub\n      swap1\n      revert\n    tag_43:\n        /* \"https://github.com/OpenZeppelin/openzeppelin-contracts/blob/master/contracts/access/Ownable.sol\":2244:2272  _transferOwnership(newOwner) */\n      tag_46\n        /* \"https://github.com/OpenZeppelin/openzeppelin-contracts/blob/master/contracts/access/Ownable.sol\":2263:2271  newOwner */\n      dup2\n        /* \"https://github.com/OpenZeppelin/openzeppelin-contracts/blob/master/contracts/access/Ownable.sol\":2244:2262  _transferOwnership */\n      tag_37\n        /* \"https://github.com/OpenZeppelin/openzeppelin-contracts/blob/master/contracts/access/Ownable.sol\":2244:2272  _transferOwnership(newOwner) */\n      jump\t// in\n    tag_46:\n        /* \"https://github.com/OpenZeppelin/openzeppelin-contracts/blob/master/contracts/access/Ownable.sol\":2081:2279  function transferOwnership(address newOwner) public virtual onlyOwner {... */\n      pop\n      jump\t// out\n        /* \"Wallet/NewWallet.sol\":576:774  function addAllowance(address _who , uint _amount) external onlyOwner{\r... */\n    tag_31:\n        /* \"https://github.com/OpenZeppelin/openzeppelin-contracts/blob/master/contracts/access/Ownable.sol\":1094:1107  _checkOwner() */\n      tag_48\n        /* \"https://github.com/OpenZeppelin/openzeppelin-contracts/blob/master/contracts/access/Ownable.sol\":1094:1105  _checkOwner */\n      tag_34\n        /* \"https://github.com/OpenZeppelin/openzeppelin-contracts/blob/master/contracts/access/Ownable.sol\":1094:1107  _checkOwner() */\n      jump\t// in\n    tag_48:\n        /* \"Wallet/NewWallet.sol\":688:698  msg.sender */\n      caller\n        /* \"Wallet/NewWallet.sol\":664:727  AllowanceChhange(_who , msg.sender , allowance[_who] , _amount) */\n      0xffffffffffffffffffffffffffffffffffffffff\n      and\n        /* \"Wallet/NewWallet.sol\":681:685  _who */\n      dup3\n        /* \"Wallet/NewWallet.sol\":664:727  AllowanceChhange(_who , msg.sender , allowance[_who] , _amount) */\n      0xffffffffffffffffffffffffffffffffffffffff\n      and\n      0x8171a87c7a3a072fe2763a39eaad3af74fdabc124e4c831d46d7012a4826ca7c\n        /* \"Wallet/NewWallet.sol\":701:710  allowance */\n      0x01\n        /* \"Wallet/NewWallet.sol\":701:716  allowance[_who] */\n      0x00\n        /* \"Wallet/NewWallet.sol\":711:715  _who */\n      dup7\n        /* \"Wallet/NewWallet.sol\":701:716  allowance[_who] */\n      0xffffffffffffffffffffffffffffffffffffffff\n      and\n      0xffffffffffffffffffffffffffffffffffffffff\n      and\n      dup2\n      mstore\n      0x20\n      add\n      swap1\n      dup2\n      mstore\n      0x20\n      add\n      0x00\n      keccak256\n      sload\n        /* \"Wallet/NewWallet.sol\":719:726  _amount */\n      dup5\n        /* \"Wallet/NewWallet.sol\":664:727  AllowanceChhange(_who , msg.sender , allowance[_who] , _amount) */\n      mload(0x40)\n      tag_50\n      swap3\n      swap2\n      swap1\n      tag_51\n      jump\t// in\n    tag_50:\n      mload(0x40)\n      dup1\n      swap2\n      sub\n      swap1\n      log3\n        /* \"Wallet/NewWallet.sol\":757:764  _amount */\n      dup1\n        /* \"Wallet/NewWallet.sol\":739:748  allowance */\n      0x01\n        /* \"Wallet/NewWallet.sol\":739:754  allowance[_who] */\n      0x00\n        /* \"Wallet/NewWallet.sol\":749:753  _who */\n      dup5\n        /* \"Wallet/NewWallet.sol\":739:754  allowance[_who] */\n      0xffffffffffffffffffffffffffffffffffffffff\n      and\n      0xffffffffffffffffffffffffffffffffffffffff\n      and\n      dup2\n      mstore\n      0x20\n      add\n      swap1\n      dup2\n      mstore\n      0x20\n      add\n      0x00\n      keccak256\n        /* \"Wallet/NewWallet.sol\":739:764  allowance[_who] = _amount */\n      dup2\n      swap1\n      sstore\n      pop\n        /* \"Wallet/NewWallet.sol\":576:774  function addAllowance(address _who , uint _amount) external onlyOwner{\r... */\n      pop\n      pop\n      jump\t// out\n        /* \"https://github.com/OpenZeppelin/openzeppelin-contracts/blob/master/contracts/access/Ownable.sol\":1359:1489  function _checkOwner() internal view virtual {... */\n    tag_34:\n        /* \"https://github.com/OpenZeppelin/openzeppelin-contracts/blob/master/contracts/access/Ownable.sol\":1433:1445  _msgSender() */\n      tag_53\n        /* \"https://github.com/OpenZeppelin/openzeppelin-contracts/blob/master/contracts/access/Ownable.sol\":1433:1443  _msgSender */\n      tag_54\n        /* \"https://github.com/OpenZeppelin/openzeppelin-contracts/blob/master/contracts/access/Ownable.sol\":1433:1445  _msgSender() */\n      jump\t// in\n    tag_53:\n        /* \"https://github.com/OpenZeppelin/openzeppelin-contracts/blob/master/contracts/access/Ownable.sol\":1422:1445  owner() == _msgSender() */\n      0xffffffffffffffffffffffffffffffffffffffff\n      and\n        /* \"https://github.com/OpenZeppelin/openzeppelin-contracts/blob/master/contracts/access/Ownable.sol\":1422:1429  owner() */\n      tag_55\n        /* \"https://github.com/OpenZeppelin/openzeppelin-contracts/blob/master/contracts/access/Ownable.sol\":1422:1427  owner */\n      tag_18\n        /* \"https://github.com/OpenZeppelin/openzeppelin-contracts/blob/master/contracts/access/Ownable.sol\":1422:1429  owner() */\n      jump\t// in\n    tag_55:\n        /* \"https://github.com/OpenZeppelin/openzeppelin-contracts/blob/master/contracts/access/Ownable.sol\":1422:1445  owner() == _msgSender() */\n      0xffffffffffffffffffffffffffffffffffffffff\n      and\n      eq\n        /* \"https://github.com/OpenZeppelin/openzeppelin-contracts/blob/master/contracts/access/Ownable.sol\":1414:1482  require(owner() == _msgSender(), \"Ownable: caller is not the owner\") */\n      tag_56\n      jumpi\n      mload(0x40)\n      0x08c379a000000000000000000000000000000000000000000000000000000000\n      dup2\n      mstore\n      0x04\n      add\n      tag_57\n      swap1\n      tag_58\n      jump\t// in\n    tag_57:\n      mload(0x40)\n      dup1\n      swap2\n      sub\n      swap1\n      revert\n    tag_56:\n        /* \"https://github.com/OpenZeppelin/openzeppelin-contracts/blob/master/contracts/access/Ownable.sol\":1359:1489  function _checkOwner() internal view virtual {... */\n      jump\t// out\n        /* \"https://github.com/OpenZeppelin/openzeppelin-contracts/blob/master/contracts/access/Ownable.sol\":2433:2620  function _transferOwnership(address newOwner) internal virtual {... */\n    tag_37:\n        /* \"https://github.com/OpenZeppelin/openzeppelin-contracts/blob/master/contracts/access/Ownable.sol\":2506:2522  address oldOwner */\n      0x00\n        /* \"https://github.com/OpenZeppelin/openzeppelin-contracts/blob/master/contracts/access/Ownable.sol\":2525:2531  _owner */\n      dup1\n      0x00\n      swap1\n      sload\n      swap1\n      0x0100\n      exp\n      swap1\n      div\n      0xffffffffffffffffffffffffffffffffffffffff\n      and\n        /* \"https://github.com/OpenZeppelin/openzeppelin-contracts/blob/master/contracts/access/Ownable.sol\":2506:2531  address oldOwner = _owner */\n      swap1\n      pop\n        /* \"https://github.com/OpenZeppelin/openzeppelin-contracts/blob/master/contracts/access/Ownable.sol\":2550:2558  newOwner */\n      dup2\n        /* \"https://github.com/OpenZeppelin/openzeppelin-contracts/blob/master/contracts/access/Ownable.sol\":2541:2547  _owner */\n      0x00\n      dup1\n        /* \"https://github.com/OpenZeppelin/openzeppelin-contracts/blob/master/contracts/access/Ownable.sol\":2541:2558  _owner = newOwner */\n      0x0100\n      exp\n      dup2\n      sload\n      dup2\n      0xffffffffffffffffffffffffffffffffffffffff\n      mul\n      not\n      and\n      swap1\n      dup4\n      0xffffffffffffffffffffffffffffffffffffffff\n      and\n      mul\n      or\n      swap1\n      sstore\n      pop\n        /* \"https://github.com/OpenZeppelin/openzeppelin-contracts/blob/master/contracts/access/Ownable.sol\":2604:2612  newOwner */\n      dup2\n        /* \"https://github.com/OpenZeppelin/openzeppelin-contracts/blob/master/contracts/access/Ownable.sol\":2573:2613  OwnershipTransferred(oldOwner, newOwner) */\n      0xffffffffffffffffffffffffffffffffffffffff\n      and\n        /* \"https://github.com/OpenZeppelin/openzeppelin-contracts/blob/master/contracts/access/Ownable.sol\":2594:2602  oldOwner */\n      dup2\n        /* \"https://github.com/OpenZeppelin/openzeppelin-contracts/blob/master/contracts/access/Ownable.sol\":2573:2613  OwnershipTransferred(oldOwner, newOwner) */\n      0xffffffffffffffffffffffffffffffffffffffff\n      and\n      0x8be0079c531659141344cd1fd0a4f28419497f9722a3daafe3b4186f6b6457e0\n      mload(0x40)\n      mload(0x40)\n      dup1\n      swap2\n      sub\n      swap1\n      log3\n        /* \"https://github.com/OpenZeppelin/openzeppelin-contracts/blob/master/contracts/access/Ownable.sol\":2496:2620  {... */\n      pop\n        /* \"https://github.com/OpenZeppelin/openzeppelin-contracts/blob/master/contracts/access/Ownable.sol\":2433:2620  function _transferOwnership(address newOwner) internal virtual {... */\n      pop\n      jump\t// out\n        /* \"https://github.com/OpenZeppelin/openzeppelin-contracts/blob/master/contracts/utils/Context.sol\":640:736  function _msgSender() internal view virtual returns (address) {... */\n    tag_54:\n        /* \"https://github.com/OpenZeppelin/openzeppelin-contracts/blob/master/contracts/utils/Context.sol\":693:700  address */\n      0x00\n        /* \"https://github.com/OpenZeppelin/openzeppelin-contracts/blob/master/contracts/utils/Context.sol\":719:729  msg.sender */\n      caller\n        /* \"https://github.com/OpenZeppelin/openzeppelin-contracts/blob/master/contracts/utils/Context.sol\":712:729  return msg.sender */\n      swap1\n      pop\n        /* \"https://github.com/OpenZeppelin/openzeppelin-contracts/blob/master/contracts/utils/Context.sol\":640:736  function _msgSender() internal view virtual returns (address) {... */\n      swap1\n      jump\t// out\n        /* \"#utility.yul\":7:146   */\n    tag_62:\n        /* \"#utility.yul\":53:58   */\n      0x00\n        /* \"#utility.yul\":91:97   */\n      dup2\n        /* \"#utility.yul\":78:98   */\n      calldataload\n        /* \"#utility.yul\":69:98   */\n      swap1\n      pop\n        /* \"#utility.yul\":107:140   */\n      tag_64\n        /* \"#utility.yul\":134:139   */\n      dup2\n        /* \"#utility.yul\":107:140   */\n      tag_65\n      jump\t// in\n    tag_64:\n        /* \"#utility.yul\":7:146   */\n      swap3\n      swap2\n      pop\n      pop\n      jump\t// out\n        /* \"#utility.yul\":152:291   */\n    tag_66:\n        /* \"#utility.yul\":198:203   */\n      0x00\n        /* \"#utility.yul\":236:242   */\n      dup2\n        /* \"#utility.yul\":223:243   */\n      calldataload\n        /* \"#utility.yul\":214:243   */\n      swap1\n      pop\n        /* \"#utility.yul\":252:285   */\n      tag_68\n        /* \"#utility.yul\":279:284   */\n      dup2\n        /* \"#utility.yul\":252:285   */\n      tag_69\n      jump\t// in\n    tag_68:\n        /* \"#utility.yul\":152:291   */\n      swap3\n      swap2\n      pop\n      pop\n      jump\t// out\n        /* \"#utility.yul\":297:626   */\n    tag_11:\n        /* \"#utility.yul\":356:362   */\n      0x00\n        /* \"#utility.yul\":405:407   */\n      0x20\n        /* \"#utility.yul\":393:402   */\n      dup3\n        /* \"#utility.yul\":384:391   */\n      dup5\n        /* \"#utility.yul\":380:403   */\n      sub\n        /* \"#utility.yul\":376:408   */\n      slt\n        /* \"#utility.yul\":373:492   */\n      iszero\n      tag_71\n      jumpi\n        /* \"#utility.yul\":411:490   */\n      tag_72\n      tag_73\n      jump\t// in\n    tag_72:\n        /* \"#utility.yul\":373:492   */\n    tag_71:\n        /* \"#utility.yul\":531:532   */\n      0x00\n        /* \"#utility.yul\":556:609   */\n      tag_74\n        /* \"#utility.yul\":601:608   */\n      dup5\n        /* \"#utility.yul\":592:598   */\n      dup3\n        /* \"#utility.yul\":581:590   */\n      dup6\n        /* \"#utility.yul\":577:599   */\n      add\n        /* \"#utility.yul\":556:609   */\n      tag_62\n      jump\t// in\n    tag_74:\n        /* \"#utility.yul\":546:609   */\n      swap2\n      pop\n        /* \"#utility.yul\":502:619   */\n      pop\n        /* \"#utility.yul\":297:626   */\n      swap3\n      swap2\n      pop\n      pop\n      jump\t// out\n        /* \"#utility.yul\":632:1106   */\n    tag_30:\n        /* \"#utility.yul\":700:706   */\n      0x00\n        /* \"#utility.yul\":708:714   */\n      dup1\n        /* \"#utility.yul\":757:759   */\n      0x40\n        /* \"#utility.yul\":745:754   */\n      dup4\n        /* \"#utility.yul\":736:743   */\n      dup6\n        /* \"#utility.yul\":732:755   */\n      sub\n        /* \"#utility.yul\":728:760   */\n      slt\n        /* \"#utility.yul\":725:844   */\n      iszero\n      tag_76\n      jumpi\n        /* \"#utility.yul\":763:842   */\n      tag_77\n      tag_73\n      jump\t// in\n    tag_77:\n        /* \"#utility.yul\":725:844   */\n    tag_76:\n        /* \"#utility.yul\":883:884   */\n      0x00\n        /* \"#utility.yul\":908:961   */\n      tag_78\n        /* \"#utility.yul\":953:960   */\n      dup6\n        /* \"#utility.yul\":944:950   */\n      dup3\n        /* \"#utility.yul\":933:942   */\n      dup7\n        /* \"#utility.yul\":929:951   */\n      add\n        /* \"#utility.yul\":908:961   */\n      tag_62\n      jump\t// in\n    tag_78:\n        /* \"#utility.yul\":898:961   */\n      swap3\n      pop\n        /* \"#utility.yul\":854:971   */\n      pop\n        /* \"#utility.yul\":1010:1012   */\n      0x20\n        /* \"#utility.yul\":1036:1089   */\n      tag_79\n        /* \"#utility.yul\":1081:1088   */\n      dup6\n        /* \"#utility.yul\":1072:1078   */\n      dup3\n        /* \"#utility.yul\":1061:1070   */\n      dup7\n        /* \"#utility.yul\":1057:1079   */\n      add\n        /* \"#utility.yul\":1036:1089   */\n      tag_66\n      jump\t// in\n    tag_79:\n        /* \"#utility.yul\":1026:1089   */\n      swap2\n      pop\n        /* \"#utility.yul\":981:1099   */\n      pop\n        /* \"#utility.yul\":632:1106   */\n      swap3\n      pop\n      swap3\n      swap1\n      pop\n      jump\t// out\n        /* \"#utility.yul\":1112:1230   */\n    tag_80:\n        /* \"#utility.yul\":1199:1223   */\n      tag_82\n        /* \"#utility.yul\":1217:1222   */\n      dup2\n        /* \"#utility.yul\":1199:1223   */\n      tag_83\n      jump\t// in\n    tag_82:\n        /* \"#utility.yul\":1194:1197   */\n      dup3\n        /* \"#utility.yul\":1187:1224   */\n      mstore\n        /* \"#utility.yul\":1112:1230   */\n      pop\n      pop\n      jump\t// out\n        /* \"#utility.yul\":1236:1345   */\n    tag_84:\n        /* \"#utility.yul\":1317:1338   */\n      tag_86\n        /* \"#utility.yul\":1332:1337   */\n      dup2\n        /* \"#utility.yul\":1317:1338   */\n      tag_87\n      jump\t// in\n    tag_86:\n        /* \"#utility.yul\":1312:1315   */\n      dup3\n        /* \"#utility.yul\":1305:1339   */\n      mstore\n        /* \"#utility.yul\":1236:1345   */\n      pop\n      pop\n      jump\t// out\n        /* \"#utility.yul\":1351:1717   */\n    tag_88:\n        /* \"#utility.yul\":1493:1496   */\n      0x00\n        /* \"#utility.yul\":1514:1581   */\n      tag_90\n        /* \"#utility.yul\":1578:1580   */\n      0x26\n        /* \"#utility.yul\":1573:1576   */\n      dup4\n        /* \"#utility.yul\":1514:1581   */\n      tag_91\n      jump\t// in\n    tag_90:\n        /* \"#utility.yul\":1507:1581   */\n      swap2\n      pop\n        /* \"#utility.yul\":1590:1683   */\n      tag_92\n        /* \"#utility.yul\":1679:1682   */\n      dup3\n        /* \"#utility.yul\":1590:1683   */\n      tag_93\n      jump\t// in\n    tag_92:\n        /* \"#utility.yul\":1708:1710   */\n      0x40\n        /* \"#utility.yul\":1703:1706   */\n      dup3\n        /* \"#utility.yul\":1699:1711   */\n      add\n        /* \"#utility.yul\":1692:1711   */\n      swap1\n      pop\n        /* \"#utility.yul\":1351:1717   */\n      swap2\n      swap1\n      pop\n      jump\t// out\n        /* \"#utility.yul\":1723:2089   */\n    tag_94:\n        /* \"#utility.yul\":1865:1868   */\n      0x00\n        /* \"#utility.yul\":1886:1953   */\n      tag_96\n        /* \"#utility.yul\":1950:1952   */\n      0x20\n        /* \"#utility.yul\":1945:1948   */\n      dup4\n        /* \"#utility.yul\":1886:1953   */\n      tag_91\n      jump\t// in\n    tag_96:\n        /* \"#utility.yul\":1879:1953   */\n      swap2\n      pop\n        /* \"#utility.yul\":1962:2055   */\n      tag_97\n        /* \"#utility.yul\":2051:2054   */\n      dup3\n        /* \"#utility.yul\":1962:2055   */\n      tag_98\n      jump\t// in\n    tag_97:\n        /* \"#utility.yul\":2080:2082   */\n      0x20\n        /* \"#utility.yul\":2075:2078   */\n      dup3\n        /* \"#utility.yul\":2071:2083   */\n      add\n        /* \"#utility.yul\":2064:2083   */\n      swap1\n      pop\n        /* \"#utility.yul\":1723:2089   */\n      swap2\n      swap1\n      pop\n      jump\t// out\n        /* \"#utility.yul\":2095:2213   */\n    tag_99:\n        /* \"#utility.yul\":2182:2206   */\n      tag_101\n        /* \"#utility.yul\":2200:2205   */\n      dup2\n        /* \"#utility.yul\":2182:2206   */\n      tag_102\n      jump\t// in\n    tag_101:\n        /* \"#utility.yul\":2177:2180   */\n      dup3\n        /* \"#utility.yul\":2170:2207   */\n      mstore\n        /* \"#utility.yul\":2095:2213   */\n      pop\n      pop\n      jump\t// out\n        /* \"#utility.yul\":2219:2441   */\n    tag_20:\n        /* \"#utility.yul\":2312:2316   */\n      0x00\n        /* \"#utility.yul\":2350:2352   */\n      0x20\n        /* \"#utility.yul\":2339:2348   */\n      dup3\n        /* \"#utility.yul\":2335:2353   */\n      add\n        /* \"#utility.yul\":2327:2353   */\n      swap1\n      pop\n        /* \"#utility.yul\":2363:2434   */\n      tag_104\n        /* \"#utility.yul\":2431:2432   */\n      0x00\n        /* \"#utility.yul\":2420:2429   */\n      dup4\n        /* \"#utility.yul\":2416:2433   */\n      add\n        /* \"#utility.yul\":2407:2413   */\n      dup5\n        /* \"#utility.yul\":2363:2434   */\n      tag_80\n      jump\t// in\n    tag_104:\n        /* \"#utility.yul\":2219:2441   */\n      swap3\n      swap2\n      pop\n      pop\n      jump\t// out\n        /* \"#utility.yul\":2447:2657   */\n    tag_24:\n        /* \"#utility.yul\":2534:2538   */\n      0x00\n        /* \"#utility.yul\":2572:2574   */\n      0x20\n        /* \"#utility.yul\":2561:2570   */\n      dup3\n        /* \"#utility.yul\":2557:2575   */\n      add\n        /* \"#utility.yul\":2549:2575   */\n      swap1\n      pop\n        /* \"#utility.yul\":2585:2650   */\n      tag_106\n        /* \"#utility.yul\":2647:2648   */\n      0x00\n        /* \"#utility.yul\":2636:2645   */\n      dup4\n        /* \"#utility.yul\":2632:2649   */\n      add\n        /* \"#utility.yul\":2623:2629   */\n      dup5\n        /* \"#utility.yul\":2585:2650   */\n      tag_84\n      jump\t// in\n    tag_106:\n        /* \"#utility.yul\":2447:2657   */\n      swap3\n      swap2\n      pop\n      pop\n      jump\t// out\n        /* \"#utility.yul\":2663:3082   */\n    tag_45:\n        /* \"#utility.yul\":2829:2833   */\n      0x00\n        /* \"#utility.yul\":2867:2869   */\n      0x20\n        /* \"#utility.yul\":2856:2865   */\n      dup3\n        /* \"#utility.yul\":2852:2870   */\n      add\n        /* \"#utility.yul\":2844:2870   */\n      swap1\n      pop\n        /* \"#utility.yul\":2916:2925   */\n      dup2\n        /* \"#utility.yul\":2910:2914   */\n      dup2\n        /* \"#utility.yul\":2906:2926   */\n      sub\n        /* \"#utility.yul\":2902:2903   */\n      0x00\n        /* \"#utility.yul\":2891:2900   */\n      dup4\n        /* \"#utility.yul\":2887:2904   */\n      add\n        /* \"#utility.yul\":2880:2927   */\n      mstore\n        /* \"#utility.yul\":2944:3075   */\n      tag_108\n        /* \"#utility.yul\":3070:3074   */\n      dup2\n        /* \"#utility.yul\":2944:3075   */\n      tag_88\n      jump\t// in\n    tag_108:\n        /* \"#utility.yul\":2936:3075   */\n      swap1\n      pop\n        /* \"#utility.yul\":2663:3082   */\n      swap2\n      swap1\n      pop\n      jump\t// out\n        /* \"#utility.yul\":3088:3507   */\n    tag_58:\n        /* \"#utility.yul\":3254:3258   */\n      0x00\n        /* \"#utility.yul\":3292:3294   */\n      0x20\n        /* \"#utility.yul\":3281:3290   */\n      dup3\n        /* \"#utility.yul\":3277:3295   */\n      add\n        /* \"#utility.yul\":3269:3295   */\n      swap1\n      pop\n        /* \"#utility.yul\":3341:3350   */\n      dup2\n        /* \"#utility.yul\":3335:3339   */\n      dup2\n        /* \"#utility.yul\":3331:3351   */\n      sub\n        /* \"#utility.yul\":3327:3328   */\n      0x00\n        /* \"#utility.yul\":3316:3325   */\n      dup4\n        /* \"#utility.yul\":3312:3329   */\n      add\n        /* \"#utility.yul\":3305:3352   */\n      mstore\n        /* \"#utility.yul\":3369:3500   */\n      tag_110\n        /* \"#utility.yul\":3495:3499   */\n      dup2\n        /* \"#utility.yul\":3369:3500   */\n      tag_94\n      jump\t// in\n    tag_110:\n        /* \"#utility.yul\":3361:3500   */\n      swap1\n      pop\n        /* \"#utility.yul\":3088:3507   */\n      swap2\n      swap1\n      pop\n      jump\t// out\n        /* \"#utility.yul\":3513:3735   */\n    tag_14:\n        /* \"#utility.yul\":3606:3610   */\n      0x00\n        /* \"#utility.yul\":3644:3646   */\n      0x20\n        /* \"#utility.yul\":3633:3642   */\n      dup3\n        /* \"#utility.yul\":3629:3647   */\n      add\n        /* \"#utility.yul\":3621:3647   */\n      swap1\n      pop\n        /* \"#utility.yul\":3657:3728   */\n      tag_112\n        /* \"#utility.yul\":3725:3726   */\n      0x00\n        /* \"#utility.yul\":3714:3723   */\n      dup4\n        /* \"#utility.yul\":3710:3727   */\n      add\n        /* \"#utility.yul\":3701:3707   */\n      dup5\n        /* \"#utility.yul\":3657:3728   */\n      tag_99\n      jump\t// in\n    tag_112:\n        /* \"#utility.yul\":3513:3735   */\n      swap3\n      swap2\n      pop\n      pop\n      jump\t// out\n        /* \"#utility.yul\":3741:4073   */\n    tag_51:\n        /* \"#utility.yul\":3862:3866   */\n      0x00\n        /* \"#utility.yul\":3900:3902   */\n      0x40\n        /* \"#utility.yul\":3889:3898   */\n      dup3\n        /* \"#utility.yul\":3885:3903   */\n      add\n        /* \"#utility.yul\":3877:3903   */\n      swap1\n      pop\n        /* \"#utility.yul\":3913:3984   */\n      tag_114\n        /* \"#utility.yul\":3981:3982   */\n      0x00\n        /* \"#utility.yul\":3970:3979   */\n      dup4\n        /* \"#utility.yul\":3966:3983   */\n      add\n        /* \"#utility.yul\":3957:3963   */\n      dup6\n        /* \"#utility.yul\":3913:3984   */\n      tag_99\n      jump\t// in\n    tag_114:\n        /* \"#utility.yul\":3994:4066   */\n      tag_115\n        /* \"#utility.yul\":4062:4064   */\n      0x20\n        /* \"#utility.yul\":4051:4060   */\n      dup4\n        /* \"#utility.yul\":4047:4065   */\n      add\n        /* \"#utility.yul\":4038:4044   */\n      dup5\n        /* \"#utility.yul\":3994:4066   */\n      tag_99\n      jump\t// in\n    tag_115:\n        /* \"#utility.yul\":3741:4073   */\n      swap4\n      swap3\n      pop\n      pop\n      pop\n      jump\t// out\n        /* \"#utility.yul\":4160:4329   */\n    tag_91:\n        /* \"#utility.yul\":4244:4255   */\n      0x00\n        /* \"#utility.yul\":4278:4284   */\n      dup3\n        /* \"#utility.yul\":4273:4276   */\n      dup3\n        /* \"#utility.yul\":4266:4285   */\n      mstore\n        /* \"#utility.yul\":4318:4322   */\n      0x20\n        /* \"#utility.yul\":4313:4316   */\n      dup3\n        /* \"#utility.yul\":4309:4323   */\n      add\n        /* \"#utility.yul\":4294:4323   */\n      swap1\n      pop\n        /* \"#utility.yul\":4160:4329   */\n      swap3\n      swap2\n      pop\n      pop\n      jump\t// out\n        /* \"#utility.yul\":4335:4431   */\n    tag_83:\n        /* \"#utility.yul\":4372:4379   */\n      0x00\n        /* \"#utility.yul\":4401:4425   */\n      tag_120\n        /* \"#utility.yul\":4419:4424   */\n      dup3\n        /* \"#utility.yul\":4401:4425   */\n      tag_121\n      jump\t// in\n    tag_120:\n        /* \"#utility.yul\":4390:4425   */\n      swap1\n      pop\n        /* \"#utility.yul\":4335:4431   */\n      swap2\n      swap1\n      pop\n      jump\t// out\n        /* \"#utility.yul\":4437:4527   */\n    tag_87:\n        /* \"#utility.yul\":4471:4478   */\n      0x00\n        /* \"#utility.yul\":4514:4519   */\n      dup2\n        /* \"#utility.yul\":4507:4520   */\n      iszero\n        /* \"#utility.yul\":4500:4521   */\n      iszero\n        /* \"#utility.yul\":4489:4521   */\n      swap1\n      pop\n        /* \"#utility.yul\":4437:4527   */\n      swap2\n      swap1\n      pop\n      jump\t// out\n        /* \"#utility.yul\":4533:4659   */\n    tag_121:\n        /* \"#utility.yul\":4570:4577   */\n      0x00\n        /* \"#utility.yul\":4610:4652   */\n      0xffffffffffffffffffffffffffffffffffffffff\n        /* \"#utility.yul\":4603:4608   */\n      dup3\n        /* \"#utility.yul\":4599:4653   */\n      and\n        /* \"#utility.yul\":4588:4653   */\n      swap1\n      pop\n        /* \"#utility.yul\":4533:4659   */\n      swap2\n      swap1\n      pop\n      jump\t// out\n        /* \"#utility.yul\":4665:4742   */\n    tag_102:\n        /* \"#utility.yul\":4702:4709   */\n      0x00\n        /* \"#utility.yul\":4731:4736   */\n      dup2\n        /* \"#utility.yul\":4720:4736   */\n      swap1\n      pop\n        /* \"#utility.yul\":4665:4742   */\n      swap2\n      swap1\n      pop\n      jump\t// out\n        /* \"#utility.yul\":4871:4988   */\n    tag_73:\n        /* \"#utility.yul\":4980:4981   */\n      0x00\n        /* \"#utility.yul\":4977:4978   */\n      dup1\n        /* \"#utility.yul\":4970:4982   */\n      revert\n        /* \"#utility.yul\":4994:5219   */\n    tag_93:\n        /* \"#utility.yul\":5134:5168   */\n      0x4f776e61626c653a206e6577206f776e657220697320746865207a65726f2061\n        /* \"#utility.yul\":5130:5131   */\n      0x00\n        /* \"#utility.yul\":5122:5128   */\n      dup3\n        /* \"#utility.yul\":5118:5132   */\n      add\n        /* \"#utility.yul\":5111:5169   */\n      mstore\n        /* \"#utility.yul\":5203:5211   */\n      0x6464726573730000000000000000000000000000000000000000000000000000\n        /* \"#utility.yul\":5198:5200   */\n      0x20\n        /* \"#utility.yul\":5190:5196   */\n      dup3\n        /* \"#utility.yul\":5186:5201   */\n      add\n        /* \"#utility.yul\":5179:5212   */\n      mstore\n        /* \"#utility.yul\":4994:5219   */\n      pop\n      jump\t// out\n        /* \"#utility.yul\":5225:5407   */\n    tag_98:\n        /* \"#utility.yul\":5365:5399   */\n      0x4f776e61626c653a2063616c6c6572206973206e6f7420746865206f776e6572\n        /* \"#utility.yul\":5361:5362   */\n      0x00\n        /* \"#utility.yul\":5353:5359   */\n      dup3\n        /* \"#utility.yul\":5349:5363   */\n      add\n        /* \"#utility.yul\":5342:5400   */\n      mstore\n        /* \"#utility.yul\":5225:5407   */\n      pop\n      jump\t// out\n        /* \"#utility.yul\":5413:5535   */\n    tag_65:\n        /* \"#utility.yul\":5486:5510   */\n      tag_131\n        /* \"#utility.yul\":5504:5509   */\n      dup2\n        /* \"#utility.yul\":5486:5510   */\n      tag_83\n      jump\t// in\n    tag_131:\n        /* \"#utility.yul\":5479:5484   */\n      dup2\n        /* \"#utility.yul\":5476:5511   */\n      eq\n        /* \"#utility.yul\":5466:5529   */\n      tag_132\n      jumpi\n        /* \"#utility.yul\":5525:5526   */\n      0x00\n        /* \"#utility.yul\":5522:5523   */\n      dup1\n        /* \"#utility.yul\":5515:5527   */\n      revert\n        /* \"#utility.yul\":5466:5529   */\n    tag_132:\n        /* \"#utility.yul\":5413:5535   */\n      pop\n      jump\t// out\n        /* \"#utility.yul\":5541:5663   */\n    tag_69:\n        /* \"#utility.yul\":5614:5638   */\n      tag_134\n        /* \"#utility.yul\":5632:5637   */\n      dup2\n        /* \"#utility.yul\":5614:5638   */\n      tag_102\n      jump\t// in\n    tag_134:\n        /* \"#utility.yul\":5607:5612   */\n      dup2\n        /* \"#utility.yul\":5604:5639   */\n      eq\n        /* \"#utility.yul\":5594:5657   */\n      tag_135\n      jumpi\n        /* \"#utility.yul\":5653:5654   */\n      0x00\n        /* \"#utility.yul\":5650:5651   */\n      dup1\n        /* \"#utility.yul\":5643:5655   */\n      revert\n        /* \"#utility.yul\":5594:5657   */\n    tag_135:\n        /* \"#utility.yul\":5541:5663   */\n      pop\n      jump\t// out\n\n    auxdata: 0xa264697066735822122010de6df7d7fc53eb3aceba0ae45936a32bba7e688b69df7126d82f33912ed5ef64736f6c63430008070033\n}\n",
				"bytecode": {
					"linkReferences": {},
					"object": "608060405234801561001057600080fd5b5061002d61002261007360201b60201c565b61007b60201b60201c565b33600260006101000a81548173ffffffffffffffffffffffffffffffffffffffff021916908373ffffffffffffffffffffffffffffffffffffffff16021790555061013f565b600033905090565b60008060009054906101000a900473ffffffffffffffffffffffffffffffffffffffff169050816000806101000a81548173ffffffffffffffffffffffffffffffffffffffff021916908373ffffffffffffffffffffffffffffffffffffffff1602179055508173ffffffffffffffffffffffffffffffffffffffff168173ffffffffffffffffffffffffffffffffffffffff167f8be0079c531659141344cd1fd0a4f28419497f9722a3daafe3b4186f6b6457e060405160405180910390a35050565b6107848061014e6000396000f3fe608060405234801561001057600080fd5b50600436106100625760003560e01c80633e5beab914610067578063715018a6146100975780638da5cb5b146100a15780638f32d59b146100bf578063f2fde38b146100dd578063f3c40c4b146100f9575b600080fd5b610081600480360381019061007c91906104b0565b610115565b60405161008e9190610606565b60405180910390f35b61009f61012d565b005b6100a9610141565b6040516100b69190610590565b60405180910390f35b6100c761016a565b6040516100d491906105ab565b60405180910390f35b6100f760048036038101906100f291906104b0565b6101c2565b005b610113600480360381019061010e91906104dd565b610246565b005b60016020528060005260406000206000915090505481565b61013561033c565b61013f60006103ba565b565b60008060009054906101000a900473ffffffffffffffffffffffffffffffffffffffff16905090565b60003373ffffffffffffffffffffffffffffffffffffffff16600260009054906101000a900473ffffffffffffffffffffffffffffffffffffffff1673ffffffffffffffffffffffffffffffffffffffff1614905090565b6101ca61033c565b600073ffffffffffffffffffffffffffffffffffffffff168173ffffffffffffffffffffffffffffffffffffffff16141561023a576040517f08c379a0000000000000000000000000000000000000000000000000000000008152600401610231906105c6565b60405180910390fd5b610243816103ba565b50565b61024e61033c565b3373ffffffffffffffffffffffffffffffffffffffff168273ffffffffffffffffffffffffffffffffffffffff167f8171a87c7a3a072fe2763a39eaad3af74fdabc124e4c831d46d7012a4826ca7c600160008673ffffffffffffffffffffffffffffffffffffffff1673ffffffffffffffffffffffffffffffffffffffff16815260200190815260200160002054846040516102ec929190610621565b60405180910390a380600160008473ffffffffffffffffffffffffffffffffffffffff1673ffffffffffffffffffffffffffffffffffffffff168152602001908152602001600020819055505050565b61034461047e565b73ffffffffffffffffffffffffffffffffffffffff16610362610141565b73ffffffffffffffffffffffffffffffffffffffff16146103b8576040517f08c379a00000000000000000000000000000000000000000000000000000000081526004016103af906105e6565b60405180910390fd5b565b60008060009054906101000a900473ffffffffffffffffffffffffffffffffffffffff169050816000806101000a81548173ffffffffffffffffffffffffffffffffffffffff021916908373ffffffffffffffffffffffffffffffffffffffff1602179055508173ffffffffffffffffffffffffffffffffffffffff168173ffffffffffffffffffffffffffffffffffffffff167f8be0079c531659141344cd1fd0a4f28419497f9722a3daafe3b4186f6b6457e060405160405180910390a35050565b600033905090565b60008135905061049581610720565b92915050565b6000813590506104aa81610737565b92915050565b6000602082840312156104c6576104c56106a3565b5b60006104d484828501610486565b91505092915050565b600080604083850312156104f4576104f36106a3565b5b600061050285828601610486565b92505060206105138582860161049b565b9150509250929050565b6105268161065b565b82525050565b6105358161066d565b82525050565b600061054860268361064a565b9150610553826106a8565b604082019050919050565b600061056b60208361064a565b9150610576826106f7565b602082019050919050565b61058a81610699565b82525050565b60006020820190506105a5600083018461051d565b92915050565b60006020820190506105c0600083018461052c565b92915050565b600060208201905081810360008301526105df8161053b565b9050919050565b600060208201905081810360008301526105ff8161055e565b9050919050565b600060208201905061061b6000830184610581565b92915050565b60006040820190506106366000830185610581565b6106436020830184610581565b9392505050565b600082825260208201905092915050565b600061066682610679565b9050919050565b60008115159050919050565b600073ffffffffffffffffffffffffffffffffffffffff82169050919050565b6000819050919050565b600080fd5b7f4f776e61626c653a206e6577206f776e657220697320746865207a65726f206160008201527f6464726573730000000000000000000000000000000000000000000000000000602082015250565b7f4f776e61626c653a2063616c6c6572206973206e6f7420746865206f776e6572600082015250565b6107298161065b565b811461073457600080fd5b50565b61074081610699565b811461074b57600080fd5b5056fea264697066735822122010de6df7d7fc53eb3aceba0ae45936a32bba7e688b69df7126d82f33912ed5ef64736f6c63430008070033",
					"opcodes": "PUSH1 0x80 PUSH1 0x40 MSTORE CALLVALUE DUP1 ISZERO PUSH2 0x10 JUMPI PUSH1 0x0 DUP1 REVERT JUMPDEST POP PUSH2 0x2D PUSH2 0x22 PUSH2 0x73 PUSH1 0x20 SHL PUSH1 0x20 SHR JUMP JUMPDEST PUSH2 0x7B PUSH1 0x20 SHL PUSH1 0x20 SHR JUMP JUMPDEST CALLER PUSH1 0x2 PUSH1 0x0 PUSH2 0x100 EXP DUP2 SLOAD DUP2 PUSH20 0xFFFFFFFFFFFFFFFFFFFFFFFFFFFFFFFFFFFFFFFF MUL NOT AND SWAP1 DUP4 PUSH20 0xFFFFFFFFFFFFFFFFFFFFFFFFFFFFFFFFFFFFFFFF AND MUL OR SWAP1 SSTORE POP PUSH2 0x13F JUMP JUMPDEST PUSH1 0x0 CALLER SWAP1 POP SWAP1 JUMP JUMPDEST PUSH1 0x0 DUP1 PUSH1 0x0 SWAP1 SLOAD SWAP1 PUSH2 0x100 EXP SWAP1 DIV PUSH20 0xFFFFFFFFFFFFFFFFFFFFFFFFFFFFFFFFFFFFFFFF AND SWAP1 POP DUP2 PUSH1 0x0 DUP1 PUSH2 0x100 EXP DUP2 SLOAD DUP2 PUSH20 0xFFFFFFFFFFFFFFFFFFFFFFFFFFFFFFFFFFFFFFFF MUL NOT AND SWAP1 DUP4 PUSH20 0xFFFFFFFFFFFFFFFFFFFFFFFFFFFFFFFFFFFFFFFF AND MUL OR SWAP1 SSTORE POP DUP2 PUSH20 0xFFFFFFFFFFFFFFFFFFFFFFFFFFFFFFFFFFFFFFFF AND DUP2 PUSH20 0xFFFFFFFFFFFFFFFFFFFFFFFFFFFFFFFFFFFFFFFF AND PUSH32 0x8BE0079C531659141344CD1FD0A4F28419497F9722A3DAAFE3B4186F6B6457E0 PUSH1 0x40 MLOAD PUSH1 0x40 MLOAD DUP1 SWAP2 SUB SWAP1 LOG3 POP POP JUMP JUMPDEST PUSH2 0x784 DUP1 PUSH2 0x14E PUSH1 0x0 CODECOPY PUSH1 0x0 RETURN INVALID PUSH1 0x80 PUSH1 0x40 MSTORE CALLVALUE DUP1 ISZERO PUSH2 0x10 JUMPI PUSH1 0x0 DUP1 REVERT JUMPDEST POP PUSH1 0x4 CALLDATASIZE LT PUSH2 0x62 JUMPI PUSH1 0x0 CALLDATALOAD PUSH1 0xE0 SHR DUP1 PUSH4 0x3E5BEAB9 EQ PUSH2 0x67 JUMPI DUP1 PUSH4 0x715018A6 EQ PUSH2 0x97 JUMPI DUP1 PUSH4 0x8DA5CB5B EQ PUSH2 0xA1 JUMPI DUP1 PUSH4 0x8F32D59B EQ PUSH2 0xBF JUMPI DUP1 PUSH4 0xF2FDE38B EQ PUSH2 0xDD JUMPI DUP1 PUSH4 0xF3C40C4B EQ PUSH2 0xF9 JUMPI JUMPDEST PUSH1 0x0 DUP1 REVERT JUMPDEST PUSH2 0x81 PUSH1 0x4 DUP1 CALLDATASIZE SUB DUP2 ADD SWAP1 PUSH2 0x7C SWAP2 SWAP1 PUSH2 0x4B0 JUMP JUMPDEST PUSH2 0x115 JUMP JUMPDEST PUSH1 0x40 MLOAD PUSH2 0x8E SWAP2 SWAP1 PUSH2 0x606 JUMP JUMPDEST PUSH1 0x40 MLOAD DUP1 SWAP2 SUB SWAP1 RETURN JUMPDEST PUSH2 0x9F PUSH2 0x12D JUMP JUMPDEST STOP JUMPDEST PUSH2 0xA9 PUSH2 0x141 JUMP JUMPDEST PUSH1 0x40 MLOAD PUSH2 0xB6 SWAP2 SWAP1 PUSH2 0x590 JUMP JUMPDEST PUSH1 0x40 MLOAD DUP1 SWAP2 SUB SWAP1 RETURN JUMPDEST PUSH2 0xC7 PUSH2 0x16A JUMP JUMPDEST PUSH1 0x40 MLOAD PUSH2 0xD4 SWAP2 SWAP1 PUSH2 0x5AB JUMP JUMPDEST PUSH1 0x40 MLOAD DUP1 SWAP2 SUB SWAP1 RETURN JUMPDEST PUSH2 0xF7 PUSH1 0x4 DUP1 CALLDATASIZE SUB DUP2 ADD SWAP1 PUSH2 0xF2 SWAP2 SWAP1 PUSH2 0x4B0 JUMP JUMPDEST PUSH2 0x1C2 JUMP JUMPDEST STOP JUMPDEST PUSH2 0x113 PUSH1 0x4 DUP1 CALLDATASIZE SUB DUP2 ADD SWAP1 PUSH2 0x10E SWAP2 SWAP1 PUSH2 0x4DD JUMP JUMPDEST PUSH2 0x246 JUMP JUMPDEST STOP JUMPDEST PUSH1 0x1 PUSH1 0x20 MSTORE DUP1 PUSH1 0x0 MSTORE PUSH1 0x40 PUSH1 0x0 KECCAK256 PUSH1 0x0 SWAP2 POP SWAP1 POP SLOAD DUP2 JUMP JUMPDEST PUSH2 0x135 PUSH2 0x33C JUMP JUMPDEST PUSH2 0x13F PUSH1 0x0 PUSH2 0x3BA JUMP JUMPDEST JUMP JUMPDEST PUSH1 0x0 DUP1 PUSH1 0x0 SWAP1 SLOAD SWAP1 PUSH2 0x100 EXP SWAP1 DIV PUSH20 0xFFFFFFFFFFFFFFFFFFFFFFFFFFFFFFFFFFFFFFFF AND SWAP1 POP SWAP1 JUMP JUMPDEST PUSH1 0x0 CALLER PUSH20 0xFFFFFFFFFFFFFFFFFFFFFFFFFFFFFFFFFFFFFFFF AND PUSH1 0x2 PUSH1 0x0 SWAP1 SLOAD SWAP1 PUSH2 0x100 EXP SWAP1 DIV PUSH20 0xFFFFFFFFFFFFFFFFFFFFFFFFFFFFFFFFFFFFFFFF AND PUSH20 0xFFFFFFFFFFFFFFFFFFFFFFFFFFFFFFFFFFFFFFFF AND EQ SWAP1 POP SWAP1 JUMP JUMPDEST PUSH2 0x1CA PUSH2 0x33C JUMP JUMPDEST PUSH1 0x0 PUSH20 0xFFFFFFFFFFFFFFFFFFFFFFFFFFFFFFFFFFFFFFFF AND DUP2 PUSH20 0xFFFFFFFFFFFFFFFFFFFFFFFFFFFFFFFFFFFFFFFF AND EQ ISZERO PUSH2 0x23A JUMPI PUSH1 0x40 MLOAD PUSH32 0x8C379A000000000000000000000000000000000000000000000000000000000 DUP2 MSTORE PUSH1 0x4 ADD PUSH2 0x231 SWAP1 PUSH2 0x5C6 JUMP JUMPDEST PUSH1 0x40 MLOAD DUP1 SWAP2 SUB SWAP1 REVERT JUMPDEST PUSH2 0x243 DUP2 PUSH2 0x3BA JUMP JUMPDEST POP JUMP JUMPDEST PUSH2 0x24E PUSH2 0x33C JUMP JUMPDEST CALLER PUSH20 0xFFFFFFFFFFFFFFFFFFFFFFFFFFFFFFFFFFFFFFFF AND DUP3 PUSH20 0xFFFFFFFFFFFFFFFFFFFFFFFFFFFFFFFFFFFFFFFF AND PUSH32 0x8171A87C7A3A072FE2763A39EAAD3AF74FDABC124E4C831D46D7012A4826CA7C PUSH1 0x1 PUSH1 0x0 DUP7 PUSH20 0xFFFFFFFFFFFFFFFFFFFFFFFFFFFFFFFFFFFFFFFF AND PUSH20 0xFFFFFFFFFFFFFFFFFFFFFFFFFFFFFFFFFFFFFFFF AND DUP2 MSTORE PUSH1 0x20 ADD SWAP1 DUP2 MSTORE PUSH1 0x20 ADD PUSH1 0x0 KECCAK256 SLOAD DUP5 PUSH1 0x40 MLOAD PUSH2 0x2EC SWAP3 SWAP2 SWAP1 PUSH2 0x621 JUMP JUMPDEST PUSH1 0x40 MLOAD DUP1 SWAP2 SUB SWAP1 LOG3 DUP1 PUSH1 0x1 PUSH1 0x0 DUP5 PUSH20 0xFFFFFFFFFFFFFFFFFFFFFFFFFFFFFFFFFFFFFFFF AND PUSH20 0xFFFFFFFFFFFFFFFFFFFFFFFFFFFFFFFFFFFFFFFF AND DUP2 MSTORE PUSH1 0x20 ADD SWAP1 DUP2 MSTORE PUSH1 0x20 ADD PUSH1 0x0 KECCAK256 DUP2 SWAP1 SSTORE POP POP POP JUMP JUMPDEST PUSH2 0x344 PUSH2 0x47E JUMP JUMPDEST PUSH20 0xFFFFFFFFFFFFFFFFFFFFFFFFFFFFFFFFFFFFFFFF AND PUSH2 0x362 PUSH2 0x141 JUMP JUMPDEST PUSH20 0xFFFFFFFFFFFFFFFFFFFFFFFFFFFFFFFFFFFFFFFF AND EQ PUSH2 0x3B8 JUMPI PUSH1 0x40 MLOAD PUSH32 0x8C379A000000000000000000000000000000000000000000000000000000000 DUP2 MSTORE PUSH1 0x4 ADD PUSH2 0x3AF SWAP1 PUSH2 0x5E6 JUMP JUMPDEST PUSH1 0x40 MLOAD DUP1 SWAP2 SUB SWAP1 REVERT JUMPDEST JUMP JUMPDEST PUSH1 0x0 DUP1 PUSH1 0x0 SWAP1 SLOAD SWAP1 PUSH2 0x100 EXP SWAP1 DIV PUSH20 0xFFFFFFFFFFFFFFFFFFFFFFFFFFFFFFFFFFFFFFFF AND SWAP1 POP DUP2 PUSH1 0x0 DUP1 PUSH2 0x100 EXP DUP2 SLOAD DUP2 PUSH20 0xFFFFFFFFFFFFFFFFFFFFFFFFFFFFFFFFFFFFFFFF MUL NOT AND SWAP1 DUP4 PUSH20 0xFFFFFFFFFFFFFFFFFFFFFFFFFFFFFFFFFFFFFFFF AND MUL OR SWAP1 SSTORE POP DUP2 PUSH20 0xFFFFFFFFFFFFFFFFFFFFFFFFFFFFFFFFFFFFFFFF AND DUP2 PUSH20 0xFFFFFFFFFFFFFFFFFFFFFFFFFFFFFFFFFFFFFFFF AND PUSH32 0x8BE0079C531659141344CD1FD0A4F28419497F9722A3DAAFE3B4186F6B6457E0 PUSH1 0x40 MLOAD PUSH1 0x40 MLOAD DUP1 SWAP2 SUB SWAP1 LOG3 POP POP JUMP JUMPDEST PUSH1 0x0 CALLER SWAP1 POP SWAP1 JUMP JUMPDEST PUSH1 0x0 DUP2 CALLDATALOAD SWAP1 POP PUSH2 0x495 DUP2 PUSH2 0x720 JUMP JUMPDEST SWAP3 SWAP2 POP POP JUMP JUMPDEST PUSH1 0x0 DUP2 CALLDATALOAD SWAP1 POP PUSH2 0x4AA DUP2 PUSH2 0x737 JUMP JUMPDEST SWAP3 SWAP2 POP POP JUMP JUMPDEST PUSH1 0x0 PUSH1 0x20 DUP3 DUP5 SUB SLT ISZERO PUSH2 0x4C6 JUMPI PUSH2 0x4C5 PUSH2 0x6A3 JUMP JUMPDEST JUMPDEST PUSH1 0x0 PUSH2 0x4D4 DUP5 DUP3 DUP6 ADD PUSH2 0x486 JUMP JUMPDEST SWAP2 POP POP SWAP3 SWAP2 POP POP JUMP JUMPDEST PUSH1 0x0 DUP1 PUSH1 0x40 DUP4 DUP6 SUB SLT ISZERO PUSH2 0x4F4 JUMPI PUSH2 0x4F3 PUSH2 0x6A3 JUMP JUMPDEST JUMPDEST PUSH1 0x0 PUSH2 0x502 DUP6 DUP3 DUP7 ADD PUSH2 0x486 JUMP JUMPDEST SWAP3 POP POP PUSH1 0x20 PUSH2 0x513 DUP6 DUP3 DUP7 ADD PUSH2 0x49B JUMP JUMPDEST SWAP2 POP POP SWAP3 POP SWAP3 SWAP1 POP JUMP JUMPDEST PUSH2 0x526 DUP2 PUSH2 0x65B JUMP JUMPDEST DUP3 MSTORE POP POP JUMP JUMPDEST PUSH2 0x535 DUP2 PUSH2 0x66D JUMP JUMPDEST DUP3 MSTORE POP POP JUMP JUMPDEST PUSH1 0x0 PUSH2 0x548 PUSH1 0x26 DUP4 PUSH2 0x64A JUMP JUMPDEST SWAP2 POP PUSH2 0x553 DUP3 PUSH2 0x6A8 JUMP JUMPDEST PUSH1 0x40 DUP3 ADD SWAP1 POP SWAP2 SWAP1 POP JUMP JUMPDEST PUSH1 0x0 PUSH2 0x56B PUSH1 0x20 DUP4 PUSH2 0x64A JUMP JUMPDEST SWAP2 POP PUSH2 0x576 DUP3 PUSH2 0x6F7 JUMP JUMPDEST PUSH1 0x20 DUP3 ADD SWAP1 POP SWAP2 SWAP1 POP JUMP JUMPDEST PUSH2 0x58A DUP2 PUSH2 0x699 JUMP JUMPDEST DUP3 MSTORE POP POP JUMP JUMPDEST PUSH1 0x0 PUSH1 0x20 DUP3 ADD SWAP1 POP PUSH2 0x5A5 PUSH1 0x0 DUP4 ADD DUP5 PUSH2 0x51D JUMP JUMPDEST SWAP3 SWAP2 POP POP JUMP JUMPDEST PUSH1 0x0 PUSH1 0x20 DUP3 ADD SWAP1 POP PUSH2 0x5C0 PUSH1 0x0 DUP4 ADD DUP5 PUSH2 0x52C JUMP JUMPDEST SWAP3 SWAP2 POP POP JUMP JUMPDEST PUSH1 0x0 PUSH1 0x20 DUP3 ADD SWAP1 POP DUP2 DUP2 SUB PUSH1 0x0 DUP4 ADD MSTORE PUSH2 0x5DF DUP2 PUSH2 0x53B JUMP JUMPDEST SWAP1 POP SWAP2 SWAP1 POP JUMP JUMPDEST PUSH1 0x0 PUSH1 0x20 DUP3 ADD SWAP1 POP DUP2 DUP2 SUB PUSH1 0x0 DUP4 ADD MSTORE PUSH2 0x5FF DUP2 PUSH2 0x55E JUMP JUMPDEST SWAP1 POP SWAP2 SWAP1 POP JUMP JUMPDEST PUSH1 0x0 PUSH1 0x20 DUP3 ADD SWAP1 POP PUSH2 0x61B PUSH1 0x0 DUP4 ADD DUP5 PUSH2 0x581 JUMP JUMPDEST SWAP3 SWAP2 POP POP JUMP JUMPDEST PUSH1 0x0 PUSH1 0x40 DUP3 ADD SWAP1 POP PUSH2 0x636 PUSH1 0x0 DUP4 ADD DUP6 PUSH2 0x581 JUMP JUMPDEST PUSH2 0x643 PUSH1 0x20 DUP4 ADD DUP5 PUSH2 0x581 JUMP JUMPDEST SWAP4 SWAP3 POP POP POP JUMP JUMPDEST PUSH1 0x0 DUP3 DUP3 MSTORE PUSH1 0x20 DUP3 ADD SWAP1 POP SWAP3 SWAP2 POP POP JUMP JUMPDEST PUSH1 0x0 PUSH2 0x666 DUP3 PUSH2 0x679 JUMP JUMPDEST SWAP1 POP SWAP2 SWAP1 POP JUMP JUMPDEST PUSH1 0x0 DUP2 ISZERO ISZERO SWAP1 POP SWAP2 SWAP1 POP JUMP JUMPDEST PUSH1 0x0 PUSH20 0xFFFFFFFFFFFFFFFFFFFFFFFFFFFFFFFFFFFFFFFF DUP3 AND SWAP1 POP SWAP2 SWAP1 POP JUMP JUMPDEST PUSH1 0x0 DUP2 SWAP1 POP SWAP2 SWAP1 POP JUMP JUMPDEST PUSH1 0x0 DUP1 REVERT JUMPDEST PUSH32 0x4F776E61626C653A206E6577206F776E657220697320746865207A65726F2061 PUSH1 0x0 DUP3 ADD MSTORE PUSH32 0x6464726573730000000000000000000000000000000000000000000000000000 PUSH1 0x20 DUP3 ADD MSTORE POP JUMP JUMPDEST PUSH32 0x4F776E61626C653A2063616C6C6572206973206E6F7420746865206F776E6572 PUSH1 0x0 DUP3 ADD MSTORE POP JUMP JUMPDEST PUSH2 0x729 DUP2 PUSH2 0x65B JUMP JUMPDEST DUP2 EQ PUSH2 0x734 JUMPI PUSH1 0x0 DUP1 REVERT JUMPDEST POP JUMP JUMPDEST PUSH2 0x740 DUP2 PUSH2 0x699 JUMP JUMPDEST DUP2 EQ PUSH2 0x74B JUMPI PUSH1 0x0 DUP1 REVERT JUMPDEST POP JUMP INVALID LOG2 PUSH5 0x6970667358 0x22 SLT KECCAK256 LT 0xDE PUSH14 0xF7D7FC53EB3ACEBA0AE45936A32B 0xBA PUSH31 0x688B69DF7126D82F33912ED5EF64736F6C6343000807003300000000000000 "
				},
				"gasEstimates": {
					"creation": {
						"codeDepositCost": "384800",
						"executionCost": "infinite",
						"totalCost": "infinite"
					},
					"external": {
						"addAllowance(address,uint256)": "infinite",
						"allowance(address)": "2792",
						"isOwner()": "2540",
						"owner()": "2544",
						"renounceOwnership()": "30398",
						"transferOwnership(address)": "30813"
					},
					"internal": {
						"reduceAllowance(address,uint256)": "infinite"
					}
				},
				"methodIdentifiers": {
					"addAllowance(address,uint256)": "f3c40c4b",
					"allowance(address)": "3e5beab9",
					"isOwner()": "8f32d59b",
					"owner()": "8da5cb5b",
					"renounceOwnership()": "715018a6",
					"transferOwnership(address)": "f2fde38b"
				}
			},
			"storageLayout": {
				"storage": [
					{
						"astId": 192,
						"contract": "Wallet/NewWallet.sol:Allowance",
						"label": "_owner",
						"offset": 0,
						"slot": "0",
						"type": "t_address"
					},
					{
						"astId": 18,
						"contract": "Wallet/NewWallet.sol:Allowance",
						"label": "allowance",
						"offset": 0,
						"slot": "1",
						"type": "t_mapping(t_address,t_uint256)"
					},
					{
						"astId": 20,
						"contract": "Wallet/NewWallet.sol:Allowance",
						"label": "_owner",
						"offset": 0,
						"slot": "2",
						"type": "t_address"
					}
				],
				"types": {
					"t_address": {
						"encoding": "inplace",
						"label": "address",
						"numberOfBytes": "20"
					},
					"t_mapping(t_address,t_uint256)": {
						"encoding": "mapping",
						"key": "t_address",
						"label": "mapping(address => uint256)",
						"numberOfBytes": "32",
						"value": "t_uint256"
					},
					"t_uint256": {
						"encoding": "inplace",
						"label": "uint256",
						"numberOfBytes": "32"
					}
				}
			},
			"userdoc": {
				"kind": "user",
				"methods": {},
				"version": 1
			}
		}
	}
}