{
	"Wallet/NewWallet.sol": {
		"Wallet": {
			"abi": [
				{
					"payable": true,
					"stateMutability": "payable",
					"type": "fallback"
				},
				{
					"constant": false,
					"inputs": [
						{
							"internalType": "address payable",
							"name": "_to",
							"type": "address"
						},
						{
							"internalType": "uint256",
							"name": "_amount",
							"type": "uint256"
						}
					],
					"name": "withdrawMoney",
					"outputs": [],
					"payable": false,
					"stateMutability": "nonpayable",
					"type": "function"
				}
			],
			"devdoc": {
				"methods": {}
			},
			"evm": {
				"assembly": "    /* \"Wallet/NewWallet.sol\":28:214  contract Wallet{\r... */\n  mstore(0x40, 0x80)\n  callvalue\n    /* \"--CODEGEN--\":8:17   */\n  dup1\n    /* \"--CODEGEN--\":5:7   */\n  iszero\n  tag_1\n  jumpi\n    /* \"--CODEGEN--\":30:31   */\n  0x00\n    /* \"--CODEGEN--\":27:28   */\n  dup1\n    /* \"--CODEGEN--\":20:32   */\n  revert\n    /* \"--CODEGEN--\":5:7   */\ntag_1:\n    /* \"Wallet/NewWallet.sol\":28:214  contract Wallet{\r... */\n  pop\n  dataSize(sub_0)\n  dup1\n  dataOffset(sub_0)\n  0x00\n  codecopy\n  0x00\n  return\nstop\n\nsub_0: assembly {\n        /* \"Wallet/NewWallet.sol\":28:214  contract Wallet{\r... */\n      mstore(0x40, 0x80)\n      jumpi(tag_1, lt(calldatasize, 0x04))\n      shr(0xe0, calldataload(0x00))\n      dup1\n      0xf274c897\n      eq\n      tag_2\n      jumpi\n    tag_1:\n      stop\n        /* \"Wallet/NewWallet.sol\":52:161  function withdrawMoney(address payable _to , uint _amount) public{\r... */\n    tag_2:\n      callvalue\n        /* \"--CODEGEN--\":8:17   */\n      dup1\n        /* \"--CODEGEN--\":5:7   */\n      iszero\n      tag_5\n      jumpi\n        /* \"--CODEGEN--\":30:31   */\n      0x00\n        /* \"--CODEGEN--\":27:28   */\n      dup1\n        /* \"--CODEGEN--\":20:32   */\n      revert\n        /* \"--CODEGEN--\":5:7   */\n    tag_5:\n        /* \"Wallet/NewWallet.sol\":52:161  function withdrawMoney(address payable _to , uint _amount) public{\r... */\n      pop\n      tag_6\n      0x04\n      dup1\n      calldatasize\n      sub\n        /* \"--CODEGEN--\":13:15   */\n      0x40\n        /* \"--CODEGEN--\":8:11   */\n      dup2\n        /* \"--CODEGEN--\":5:16   */\n      lt\n        /* \"--CODEGEN--\":2:4   */\n      iszero\n      tag_7\n      jumpi\n        /* \"--CODEGEN--\":29:30   */\n      0x00\n        /* \"--CODEGEN--\":26:27   */\n      dup1\n        /* \"--CODEGEN--\":19:31   */\n      revert\n        /* \"--CODEGEN--\":2:4   */\n    tag_7:\n        /* \"Wallet/NewWallet.sol\":52:161  function withdrawMoney(address payable _to , uint _amount) public{\r... */\n      dup2\n      add\n      swap1\n      dup1\n      dup1\n      calldataload\n      0xffffffffffffffffffffffffffffffffffffffff\n      and\n      swap1\n      0x20\n      add\n      swap1\n      swap3\n      swap2\n      swap1\n      dup1\n      calldataload\n      swap1\n      0x20\n      add\n      swap1\n      swap3\n      swap2\n      swap1\n      pop\n      pop\n      pop\n      tag_8\n      jump\t// in\n    tag_6:\n      stop\n    tag_8:\n        /* \"Wallet/NewWallet.sol\":132:135  _to */\n      dup2\n        /* \"Wallet/NewWallet.sol\":132:144  _to.transfer */\n      0xffffffffffffffffffffffffffffffffffffffff\n      and\n        /* \"Wallet/NewWallet.sol\":132:153  _to.transfer(_amount) */\n      0x08fc\n        /* \"Wallet/NewWallet.sol\":145:152  _amount */\n      dup3\n        /* \"Wallet/NewWallet.sol\":132:153  _to.transfer(_amount) */\n      swap1\n      dup2\n      iszero\n      mul\n      swap1\n      mload(0x40)\n      0x00\n      mload(0x40)\n      dup1\n      dup4\n      sub\n      dup2\n      dup6\n      dup9\n      dup9\n      call\n      swap4\n      pop\n      pop\n      pop\n      pop\n      iszero\n        /* \"--CODEGEN--\":8:17   */\n      dup1\n        /* \"--CODEGEN--\":5:7   */\n      iszero\n      tag_10\n      jumpi\n        /* \"--CODEGEN--\":45:61   */\n      returndatasize\n        /* \"--CODEGEN--\":42:43   */\n      0x00\n        /* \"--CODEGEN--\":39:40   */\n      dup1\n        /* \"--CODEGEN--\":24:62   */\n      returndatacopy\n        /* \"--CODEGEN--\":77:93   */\n      returndatasize\n        /* \"--CODEGEN--\":74:75   */\n      0x00\n        /* \"--CODEGEN--\":67:94   */\n      revert\n        /* \"--CODEGEN--\":5:7   */\n    tag_10:\n        /* \"Wallet/NewWallet.sol\":132:153  _to.transfer(_amount) */\n      pop\n        /* \"Wallet/NewWallet.sol\":52:161  function withdrawMoney(address payable _to , uint _amount) public{\r... */\n      pop\n      pop\n      jump\t// out\n\n    auxdata: 0xa265627a7a72315820fef5fecfc58ee527be0f2fa3981ab574bb79e209db445b8ff7416f18c6491cc764736f6c634300050d0032\n}\n",
				"bytecode": {
					"linkReferences": {},
					"object": "608060405234801561001057600080fd5b5060f48061001f6000396000f3fe608060405260043610601c5760003560e01c8063f274c89714601e575b005b348015602957600080fd5b50607360048036036040811015603e57600080fd5b81019080803573ffffffffffffffffffffffffffffffffffffffff169060200190929190803590602001909291905050506075565b005b8173ffffffffffffffffffffffffffffffffffffffff166108fc829081150290604051600060405180830381858888f1935050505015801560ba573d6000803e3d6000fd5b50505056fea265627a7a72315820fef5fecfc58ee527be0f2fa3981ab574bb79e209db445b8ff7416f18c6491cc764736f6c634300050d0032",
					"opcodes": "PUSH1 0x80 PUSH1 0x40 MSTORE CALLVALUE DUP1 ISZERO PUSH2 0x10 JUMPI PUSH1 0x0 DUP1 REVERT JUMPDEST POP PUSH1 0xF4 DUP1 PUSH2 0x1F PUSH1 0x0 CODECOPY PUSH1 0x0 RETURN INVALID PUSH1 0x80 PUSH1 0x40 MSTORE PUSH1 0x4 CALLDATASIZE LT PUSH1 0x1C JUMPI PUSH1 0x0 CALLDATALOAD PUSH1 0xE0 SHR DUP1 PUSH4 0xF274C897 EQ PUSH1 0x1E JUMPI JUMPDEST STOP JUMPDEST CALLVALUE DUP1 ISZERO PUSH1 0x29 JUMPI PUSH1 0x0 DUP1 REVERT JUMPDEST POP PUSH1 0x73 PUSH1 0x4 DUP1 CALLDATASIZE SUB PUSH1 0x40 DUP2 LT ISZERO PUSH1 0x3E JUMPI PUSH1 0x0 DUP1 REVERT JUMPDEST DUP2 ADD SWAP1 DUP1 DUP1 CALLDATALOAD PUSH20 0xFFFFFFFFFFFFFFFFFFFFFFFFFFFFFFFFFFFFFFFF AND SWAP1 PUSH1 0x20 ADD SWAP1 SWAP3 SWAP2 SWAP1 DUP1 CALLDATALOAD SWAP1 PUSH1 0x20 ADD SWAP1 SWAP3 SWAP2 SWAP1 POP POP POP PUSH1 0x75 JUMP JUMPDEST STOP JUMPDEST DUP2 PUSH20 0xFFFFFFFFFFFFFFFFFFFFFFFFFFFFFFFFFFFFFFFF AND PUSH2 0x8FC DUP3 SWAP1 DUP2 ISZERO MUL SWAP1 PUSH1 0x40 MLOAD PUSH1 0x0 PUSH1 0x40 MLOAD DUP1 DUP4 SUB DUP2 DUP6 DUP9 DUP9 CALL SWAP4 POP POP POP POP ISZERO DUP1 ISZERO PUSH1 0xBA JUMPI RETURNDATASIZE PUSH1 0x0 DUP1 RETURNDATACOPY RETURNDATASIZE PUSH1 0x0 REVERT JUMPDEST POP POP POP JUMP INVALID LOG2 PUSH6 0x627A7A723158 KECCAK256 INVALID CREATE2 INVALID 0xCF 0xC5 DUP15 0xE5 0x27 0xBE 0xF 0x2F LOG3 SWAP9 BYTE 0xB5 PUSH21 0xBB79E209DB445B8FF7416F18C6491CC764736F6C63 NUMBER STOP SDIV 0xD STOP ORIGIN "
				},
				"gasEstimates": {
					"creation": {
						"codeDepositCost": "48800",
						"executionCost": "99",
						"totalCost": "48899"
					},
					"external": {
						"": "74",
						"withdrawMoney(address,uint256)": "infinite"
					}
				},
				"methodIdentifiers": {
					"withdrawMoney(address,uint256)": "f274c897"
				}
			},
			"storageLayout": {
				"storage": [],
				"types": null
			},
			"userdoc": {
				"methods": {}
			}
		}
	}
}